:020000040800F2
:100000000013002075060008333800086106000858
:100010006106000861060008610600080000000093
:100020000000000000000000000000005907000868
:100030006106000800000000E1060008491A0008F7
:100040001D0900081D0900081D0900081D090008F8
:100050001D0900081D0900081D0900081D090008E8
:100060001D0900081D0900081D0900081D090008D8
:100070001D0900081D0900081D0900081D090008C8
:100080001D0900081D0900081D0900081D090008B8
:100090001D0900081D0900081D0900081D090008A8
:1000A0001D0900081D0900081D0900081D09000898
:1000B0001D0900081D0900081D0900081D09000888
:1000C0001D0900081D0900081D0900081D09000878
:1000D0001D0900081D0900081D0900081D09000868
:1000E0001D0900081D0900081D0900081D09000858
:1000F0001D0900081D0900081D0900081D09000848
:100100001D0900081D0900081D0900081D09000837
:100110001D0900081D0900081D0900081D09000827
:100120001D0900081D0900081D0900081D09000817
:100130001D0900081D0900081D0900081D09000807
:100140001D0900081D0900081D0900081D090008F7
:100150001D0900081D0900081D0900081D090008E7
:100160001D0900081D0900081D0900081D090008D7
:100170001D0900081D0900081D0900081D090008C7
:0C0180001D0900081D0900081D090008E9
:10018C0010B5114804F0DDFE08B9002010BD04467E
:10019C004FF4D0110D4803F08CFA002807DAF4E77D
:1001AC000B490C4802F0EEFF642003F097FA074865
:1001BC0003F08AFA0028E8DB84F0010313F0FF0453
:1001CC00EED00549EDE700BF38550008E0580008AF
:1001DC00CC580008D0580008C858000808B5024B85
:1001EC001B68984708BD00BF00000020014B186039
:1001FC00704700BF0000002000B585B00A46002300
:10020C00009301930293039302238DF80230044B65
:10021C0001930146684602F0C7FF05B05DF804FB88
:10022C00E901000880B505460E461746984602F0CF
:10023C00ADFC034605F00AF90446DFF8189049F8BE
:10024C000030424639463046A84754F8090000F0C1
:10025C0027FA00BF08000000034A536843F002036A
:10026C0053600020704700BF002004E0084B1A6860
:10027C0042F400721A601A6842F480621A601A68BA
:10028C0042F480721A60034B034A1A60704700BF35
:10029C00002002403400002000093D00014B0360A7
:1002AC0000207047E858000830BFFFF7FDBF00BFC3
:1002BC0038B50446054D2A46054905F03EF8054A71
:1002CC000021601905F047F838BD00BF00000000A0
:1002DC00C85800080400000070B50646064D074BD0
:1002EC001D444C1B2046FFF7E3FF083CC6F8B44006
:1002FC0005F1080070BD00BF000000000400000004
:10030C00054BDA699B689A4204D0044A536843F05F
:10031C0080535360704700BFE801002000ED00E0FF
:10032C0038B51546204B9B6A13F4805F19D11624FF
:10033C001D4B9B6A13F4006F00D018241A4B9B6A58
:10034C0013F4007F10D0184B9A6B9B6A13F4004F78
:10035C0009D0D9B1144A936A23F400439362192447
:10036C0002E01724E4E719240F4B9B6A13F4806F07
:10037C0000D01A240C4B9B6A13F4807F08D10A4BD3
:10038C009B6A13F4005F04D01C2402E01924EBE7F1
:10039C001B24054A936A43F47F439362012103F0C3
:1003AC0048FA2870204638BD00ED00E0174B9B6AD8
:1003BC0013F0007F25D11D20144B9B6A13F0807F16
:1003CC0000D01F20114B9B6A13F4002F00D021206A
:1003DC000E4B9B6A13F4802F00D022200B4B9B6A90
:1003EC0013F4003F00D02320084B9B6A13F4803F8A
:1003FC0009D1064A936A6FEA03436FEA1343936287
:10040C0070471E20D8E72420F3E700BF00ED00E082
:10041C0081690D4B5A6942F480725A61BFF34F8F58
:10042C00BFF36F8F31F8021C5A6922F480725A6143
:10043C00BFF34F8FBFF36F8F4DF60273994201D00C
:10044C00002070470120704700ED00E070B50446B5
:10045C001646324B9B6A13F0100F1AD110252F4BF6
:10046C009B6A13F0080F00D012252C4B9B6A13F0DB
:10047C00020F10D0294B586B9B6A13F0800F3DD0A4
:10048C0000293FD0254A936A23F0800393621325F9
:10049C0003E01125E3E76FF01500204B9B6A13F086
:1004AC00010F00D014251D4B9B6A13F0200F00D0B8
:1004BC0015251A4B9B6A13F0100F04D1174B9B6A2E
:1004CC0013F0020F04D0154B5B6813F4006F1BD1B3
:1004DC00124B9B6A13F0200F04D0104A536A23F47A
:1004EC00005353620D4A936A43F0FF039362012158
:1004FC00204603F09EF93070284670BD6FF0150051
:10050C001325CAE71325C8E7214600F099F90028FE
:10051C00DED080F309880225DAE700BF00ED00E0A9
:10052C0038B5054600230B701A4BD86A10F0020040
:10053C002DD10C46DB6A002B2ADB164BD86A10F047
:10054C00804025D02846FFF763FF08B128681FE0DC
:10055C00104B9B6A13F0FF0F0DD10E4B986A10F4E1
:10056C007F400ED10B4B9B6AB3F5803F10D32846CE
:10057C00FFF71CFF0CE0224601212846FFF766FF1F
:10058C0006E0224601212846FFF7CAFE00E00020C3
:10059C0038BD00BF00ED00E030B58BB00C46264BEB
:1005AC005968C1F30801002383F31188BFF36F8FDF
:1005BC0002F07F43B3F17F4F15D102F00C03082BEF
:1005CC0014D012F0080F0BD000250DF12702204695
:1005DC0003F034F986469DF8273053B10BB030BD8B
:1005EC0004460125F1E700252C46EEE700252C46B4
:1005FC00EBE70DF1040C20686168A268E368ACE8D5
:10060C000F0020696169A269E369ACE80F0045B18C
:10061C00C3F308025AB96FEA53236FEA43230893D2
:10062C0005E0089B23F4FF7323F00103089301A951
:10063C00704603F0E9F8D1E700ED00E0044B5A698D
:10064C0042F010025A615A6922F008025A6170474E
:10065C0000ED00E0EFF30880EFF3098101B572467D
:10066C00FFF79AFF01BD00BF102080F311880B48E3
:10067C004FF0AA014FF4046204F096FC07484FF4C3
:10068C000461401880F30988EFF3148002210843B9
:10069C0080F31488BFF36F8F00F08CF840050020B6
:1006AC0008B50A4B9B68834202D002F075FA08BD6C
:1006BC00EFF30583002BF8D0054B5A6842F08052BB
:1006CC005A605A6A22F400425A62EEE7E8010020AE
:1006DC0000ED00E001B504F0DFFCBDE80140184975
:1006EC008A684FF040001044EFF3098C80E8F01F4B
:1006FC00102080F31288BFF36F8F124F4FF00066FB
:10070C00CA698A603E60D2F8B4000F4C2060D2F8FF
:10071C00B8000023C2F8B83080F3118804B5104635
:10072C0000F014F9BDE8044002F1400090E8F01F1D
:10073C008CF3098801B501F069FEBDE801407047F2
:10074C00E801002004ED00E0080300201EF0040F77
:10075C000CBFEFF30880EFF30980816911F8021CDC
:10076C000229FFD001B5724603F057F801BD00BF56
:10077C00002807DB00F01F02400901239340024AC6
:10078C0042F82030704700BF00E100E0002808DB91
:10079C000901C9B200F1604000F5614080F8001316
:1007AC00704700F00F000901C9B2014B1954704792
:1007BC0014ED00E008B50F4B0F4A22F07F029A604F
:1007CC00BFF34F8FBFF36F8FD3F8882022F47002E2
:1007DC00C3F88820EFF3148323F0040383F3148805
:1007EC00BFF36F8F01F0C0FB02F040FB00F076F816
:1007FC0001F020FC00ED00E00000000810B4A2F1B4
:10080C0020040E4942F8081C21F0010142F8081C92
:10081C0042F8203C019B42F81C3C029B42F8183CDD
:10082C00039B42F8143C4FF0807342F8043C04667E
:10083C000023C0F8B83010BC704700BF310200086C
:10084C00104B9B68BBB110F1160F0BD0D3F8A42042
:10085C00A2F1400C844510D8824210D98A4207D8A4
:10086C0000207047D3F8A4208A4201D8002070479A
:10087C00D3F8A40070470020704700207047002078
:10088C00704700BFE801002008B504460E46154627
:10089C000B4B9860D0F8B4200A4B1A6001F0B6FDEF
:1008AC00204600F053F82C4686F309880020064BAE
:1008BC0098472046002100220023044C204700BF0B
:1008CC00E801002008030020B138000831020008BC
:1008DC00014B10221A61704700ED00E0002206E087
:1008EC0003F00F030949194410230B760132522AE5
:1008FC000ADC53B2002BF3DB03F1604303F56143D5
:10090C00102183F80013F1E7704700BFFCEC00E006
:10091C0008B5EFF30583103B044A02EBC3014968A9
:10092C0052F833008847FFF7EBFC08BD88550008E8
:10093C0008B5034B034A0121034803F0F7F808BD3F
:10094C000000012000000020E858000808B5D0F88D
:10095C00A430403B0448036040234360034B836056
:10096C00012103F0E7F808BD0C03002000000B1573
:10097C00084AC2F898000B6823F01F03034343F0A6
:10098C001003C2F89C308B6843F00103C2F8A0300E
:10099C00704700BF00ED00E0084BD3F89030C3F374
:1009AC000723013B984205D810B50446FFF7E0FF3A
:1009BC00204610BD6FF01500704700BF00ED00E041
:1009CC0010B5034C0123227802F0B0FF207010BD4B
:1009DC002005002008B500230B4A127802F0A6FF70
:1009EC0010F1160F0FD0024606E0084BC3F8982002
:1009FC000021C3F8A0100132044BD3F89030C3F39C
:100A0C0007239342F1DC08BD2005002000ED00E037
:100A1C00044B0522C3F89420BFF34F8FBFF36F8FA5
:100A2C00704700BF00ED00E0BFF35F8F024B002268
:100A3C00C3F89420704700BF00ED00E038B51C4BA4
:100A4C001D681C4BD3F89030C3F307239D422BD861
:100A5C00FFF7EAFF002409E0154B5B6804EB440147
:100A6C0003EB81012046FFF783FF0134A542F3D845
:100A7C001148057002F082FF10F1160F13D00E4BC7
:100A8C001A780C4BD3F89030C3F307239A4207DA49
:100A9C00084BC3F898200021C3F8A0100132F0E7EE
:100AAC00FFF7B6FF002038BD4FF0FF30FBE700BF6B
:100ABC00F458000800ED00E02005002008B5024BBA
:100ACC001B689847002008BD18030020034B1860D2
:100ADC00034A937843F00203937070471803002085
:100AEC000400002008B5064921F00701C1F10052AD
:100AFC0002F58032034802F034FE002008BD00BF2E
:100B0C00471300201C03002070B50546002401E0AB
:100B1C000134E4B26B78A34215D32B782344DAB2B8
:100B2C0001209040084A526930EA0202F0D1064A8C
:100B3C005061064A52F83360002EE9D002EBC30331
:100B4C005968B047E4E770BD000401402803002059
:100B5C0000B583B0002300930193BDF800306022F0
:100B6C0062F30B03ADF80030012301930348836853
:100B7C001B686946984703B05DF804FBD454000821
:100B8C00002399420ADD10B400EB030C044C04F86A
:100B9C000C2001339942F7DC10BC7047704700BF42
:100BAC001400002001F0030C0CF102020A4B53F864
:100BBC0022200B0C22EA114193FAA3F34BB1B3FAA6
:100BCC0083F3984001430CF1020C034A42F82C10B9
:100BDC0070472023F5E700BF0000014000F003033D
:100BEC000233074A52F82320030C02EA104093FA0E
:100BFC00A3F31BB1B3FA83F3D84070472023FBE770
:100C0C000000014008B5034668B1B0FA80F2C2F1A9
:100C1C001F02D2B205498856054A11680B4313606E
:100C2C0002F02FFE08BDFF22F4E700BF14000020E5
:100C3C0000040140024A136823EA00031360704762
:100C4C0000040140032926D8DFE801F0020C151E30
:100C5C00114B9A6822EA00029A60DA6822EA0002D2
:100C6C00DA6070470C4B9A6802439A60DA6822EAA1
:100C7C000002DA607047084BDA680243DA609A685F
:100C8C0022EA00029A607047034B9A6802439A600A
:100C9C00DA681043D86070470004014010B498B172
:100CAC00B0FA80F3C3F11F03DBB29C460D4850F839
:100CBC00330088420AD088B90A4B43F83C1003EB46
:100CCC00CC035A6010BC7047FF23EEE7054C04EBD5
:100CDC00C3035B689342EED10020F3E76FF00F0083
:100CEC00F0E700BF2803002060B1B0FA80F3C3F135
:100CFC001F03DBB2044A002142F8331002EBC3029B
:100D0C0051607047FF23F5E7280300202DE9F041DF
:100D1C00069CB4F804C06588AC441FFA8CFC9D8812
:100D2C005E883544ADB286B201FB00FE364FA7FBA0
:100D3C000E7ECEF38F1EA6EB0E0E1FFA8EFEDF88F4
:100D4C00774541D2B4F80680F04528BFF046A6EBB3
:100D5C00080E1FFA8EFE0EF1FF3E1FFA8EFEF445B2
:100D6C0034D2A6EB0C081FFA88F808F1FF381FFAEA
:100D7C0088F8E588454540D3A2F806804FEA5C0523
:100D8C00B3F802E0BEEB5C0F04D2B4F802E0AE455F
:100D9C0028BFAE46A2F802E0ACEB0E0E1FFA8EFE98
:100DAC00A2F804E0A488A6451DD99480ACEB0404F9
:100DBC0054804FF47A730CFB0333B3FBF0F0814295
:100DCC0019D2401ABDE8F081B846C0E7754508D97C
:100DDC00761BB6B2013E1FFA86F8474510D8AC46D2
:100DEC00CAE7F446C8E79B889E45E2D29380ACEBF9
:100DFC0003035380DDE7081AE4E76FF08500E1E7B1
:100E0C006FF08500DEE700BFD34D6210074B9842B0
:100E1C0005D8074B984205D94FF44870704740F2FB
:100E2C00EE20704740F26B30704700BF00350C006D
:100E3C0020A1070070B582B014461D4682688368F5
:100E4C00064EB44207D830323A330195009402F082
:100E5C00E2FE02B070BD6FF01500FAE740420F00E1
:100E6C0008B50A464168064B9B68DB6823B11C3108
:100E7C000348984700B908BD6FF00400FBE700BFBA
:100E8C00D45400082DE9F04782B046680769B5696B
:100E9C00222902D902B0BDE8F0870C464FF0FF388A
:100EAC004FF0FF3942464B463B4801F001F907F140
:100EBC00100A42464B46504601F0FAF87269B36983
:100ECC009A4236D00E26062C35DC264404F120033B
:100EDC0007EB830300225A6004F1360347F8232002
:100EEC0001273A46D5F8003243F00103C5F8003229
:100EFC0006F148014FF0FF330093002305EBC101CD
:100F0C00204602F0E5FF3FB1D5F81C320122B24079
:100F1C0023EA0203C5F81C32D5F8003223F0010392
:100F2C00C5F80032504601F043F91B4801F040F976
:100F3C00B0E70026C7E7E31F073603EBD37206EBD7
:100F4C00620604F10B0207EB82020021516004F1EE
:100F5C00210247F822108B4203F00102B8BF524223
:100F6C00012A0BD00C2B13DC04F10C0307EB8307C9
:100F7C007F68B7FA87F77F090022B3E704F10A0309
:100F8C0007EB83035F68B7FA87F77F090A46A9E77F
:100F9C0001270022A6E700BFA00400202DE9F84F8E
:100FAC001D46D0F810A01B7A012B38D804460F46EA
:100FBC0016464FF0FF384FF0FF3942464B46194862
:100FCC0001F076F80AF1100B42464B46584601F0F8
:100FDC006FF82946204602F08DFF041E0CDB2B7A9D
:100FEC0013F0010F11D004F120030AEB83035F60AF
:100FFC0004F136034AF82360584601F0D9F8094841
:10100C0001F0D6F82046BDE8F88F04F10B030AEB8B
:10101C0083035F6004F121034AF82360ECE76FF06F
:10102C008504EFE7A0040020F8B50E4643685D691F
:10103C00076907F110044FF0FF324FF0FF332046E1
:10104C0001F036F83B79FBB9EA69124B1340328850
:10105C00013A120602F040721343B288013A1204AC
:10106C0002F470221343F288013A120502F4E002F2
:10107C0013433289013AC2F309021343EB61204650
:10108C0001F096F80020F8BD204601F091F86FF0C1
:10109C000F00F8E700FC80FC38B50446036843F009
:1010AC000103036000F0B0FD0546636813F0010F07
:1010BC000CD100F0A9FD401B054B9842F5D92368D3
:1010CC0023F0010323606FF00A0000E0002038BD1C
:1010DC0000350C0038B50446036823F001030360A7
:1010EC0000F092FD0546636813F0010F08D000F084
:1010FC008BFD401B034B9842F5D96FF00A0000E0C2
:10110C00002038BD00350C0038B50446036823F0C8
:10111C000203036000F078FD0546636813F0020FCC
:10112C0008D000F071FD401B034B9842F5D96FF0CD
:10113C000A0000E0002038BD00350C002DE9F0411C
:10114C0084B0064644680769D4F8148000250195DC
:10115C000295ADF80C504A4803F052FF07F110000D
:10116C0003F04EFF07F124000122294603F04FFF44
:10117C00206818B103F0E5FE002874D0414803F054
:10118C00E0FE002872D03F4883681B6804F11C0104
:10119C00984700286DD10021A06A03F09BF9051E29
:1011AC0004DB4046FFF778FF054618B1284604B02B
:1011BC00BDE8F0814046FFF7A7FF05460028F5D1B2
:1011CC006269A3699A4200D00E20D3F8002242F043
:1011DC000102C3F80022A169D1F80C327F228240AF
:1011EC001343C1F80C32A269D2F8003223F0010388
:1011FC00C2F80032D8F8003023F0FC03C8F80030F5
:10120C00D8F8003043F08003C8F80030D8F800302C
:10121C0043F04003C8F80030E268238A01A9304645
:10122C00FFF708FE10F1160F26D001A9304602F088
:10123C00D0FD05460028B9D10021304602F0C9FE88
:10124C0005460028B2D1002207F1F401304602F025
:10125C00DBFD636A40469847D8F8143043F001032D
:10126C00C8F81430A2E76FF012059FE76FF0120573
:10127C009CE76FF0040599E76FF0040596E700BF53
:10128C00A0040020D4540008104B1B6813F4806F8A
:10129C000ED10E4A136843F48073136001E0012BE6
:1012AC0006D00A4B1B6813F48063F8D00123F6E7D1
:1012BC00064A936823F0030343F001039360034B46
:1012CC009B6803F00C03042BF9D17047001002400B
:1012DC00134B1B6813F4806F0ED1114A136843F43F
:1012EC008073136001E0012B06D00D4B1B6813F4C7
:1012FC008063F8D00123F6E7094AD2F8943043F022
:10130C000103C2F8943001E0012B07D0044BD3F851
:10131C00943013F00203F7D00123F5E7704700BFB8
:10132C000010024070B50C461546454B1E68012155
:10133C00304603F0E6F82388C3F30B03072B76D073
:10134C002388C3F30B03013B5F2B73D8DFE803F057
:10135C0044616468726B72464F5872727272727228
:10136C007272727272727272727272727272727251
:10137C007272727272727272727272727272727241
:10138C007272727272727272727272727272727231
:10139C007272727272727230727272307272723ED9
:1013AC0072727272727272407272724072727242A5
:1013BC002E602368B3F5805F3FD32A68C3F31333E1
:1013CC000133B2FBF3F22A60002035E02E60F0E727
:1013DC002860EEE72860ECE72E60EAE700F0C2F840
:1013EC0007231422012103F085F82860E1E700F0BF
:1013FC00B9F802231422012103F07CF82860D8E705
:10140C0000F0B0F804231422012103F073F82860D3
:10141C00CFE700232B60CCE74FF4FA432B60C8E7EF
:10142C00084B2B60C5E703F06FF82860C1E76FF03D
:10143C00850001E06FF0850070BD0020FCE700BF67
:10144C00340000200024F40010B5214B9B6803F0FD
:10145C000C030C2B05D01E4A136823F08073136009
:10146C0008E0FFF711FF1A4A936823F0F00393602A
:10147C00F1E733B1164B1B6813F00073F9D001235D
:10148C00F7E7134CE36823F0605323F4003343F085
:10149C006053E360E36843F48033E360E36823F470
:1014AC00C003E360E36843F48013E36000F05EF88C
:1014BC00236843F08073236001E0012B06D0044BBA
:1014CC001B6813F00073F8D00123F6E710BD00BFC2
:1014DC000010024038B500F05FF81E4C204603F0B7
:1014EC00A6F800F0A5FB1C4B9B68C3F303131B4A27
:1014FC00D35C20FA03F513781C41A54222D3FFF7E5
:10150C00E7FEFFF7A1FF144B9A6822F0F0029A60F5
:10151C009A6842F003029A600F4B9B6803F00C032D
:10152C000C2BF9D1A54211D20D4B0A4A1A600A4B69
:10153C009A6822F4E0629A609A6822F460529A6087
:10154C00002038BD204600F0CDFBD8E7204600F047
:10155C00C9FBE9E700B4C40400100240485B000872
:10156C0034000020004870470024F40008B503F054
:10157C005FF8074AD168074B0B4040F0007040F40D
:10158C00A0500343D360D36843F08073D36008BD8D
:10159C00001002408C80FFF982B0064B9A6D42F02D
:1015AC0080529A659B6D03F080530193019B02B0AE
:1015BC00704700BF0010024010B504460A2806D040
:1015CC00E1B2064883685B689847204610BD034823
:1015DC0083685B680D219847F2E700BF60550008EF
:1015EC0010B5044C2046FFF771FA2046FEF7FEFDBD
:1015FC0010BD00BFC515000808B5054803F0A1FCD7
:10160C0018B1FFF7EDFF002008BD6FF01200FBE7EB
:10161C006055000808B5436831B107488268126804
:10162C0003F10C01904708BD03488268526803F12E
:10163C000C019047F7E700BFD45400082DE9F8439C
:10164C000F4616461C46D0F80480D0F81090D8F8F7
:10165C00080002F0C2FAB6F5001F0FD00546B6F529
:10166C00800F2DD0B4F1806F26D0B4F1C06F25D08F
:10167C00B4F1007F09D06FF015041AE03946D8F8A0
:10168C00080003F0D1F9002413E002264A460F4962
:10169C002846FFF703FB0446A8B9D8F808103846CB
:1016AC0002F09EFA31462846FFF7CCFA2846FFF79F
:1016BC00A9FA2046BDE8F8830126E7E70326E5E70B
:1016CC006FF08504F5E76FF00F04F2E705470008AB
:1016DC0010B5044603695860074803F032FC38B172
:1016EC0001212046FFF796FF002800DB002010BDEB
:1016FC006FF01200FBE700BFD4540008B0F5887FF0
:10170C0017D2F8B504460D46164603090A4A52F894
:10171C0023705FB1384603F014FC38B133462A46C7
:10172C0004F00F01384603F097F9F8BD6FF0120082
:10173C00FBE76FF015007047605A00082DE9F8437D
:10174C0006460C4643681D680369D3F804900B7970
:10175C00012B17D0022B18D14FF480616279012A2A
:10176C0018D0022A18D092B14FF4005794F8068082
:10177C00B8F1020F13D0B8F1040F16D0002B53D1CF
:10178C00002014E04FF4C061E8E70021E6E74FF4D5
:10179C008057EBE70027E9E74FF44057E6E70BB13A
:1017AC00002004E04FF0805001E04FF48050A3F192
:1017BC00030C5FFA8CFCBCF1010F4AD913B1B8F1E0
:1017CC00040F49D0B7F5805F33D0B7F5405F32D006
:1017DC006FB303239A4242D103F00DFA804541D1F5
:1017EC00E37973B1012B28D0032B3ED1224B9D42C0
:1017FC0007D0A3F574439D4203D003F570539D426B
:10180C0036D12B6823F001032B602146304603F0C0
:10181C0007FA2B6843F001032B6094E8030089E876
:10182C0003000020BDE8F8834FF48050BFE701238C
:10183C00D0E70023CEE70223CCE70F4A9542E0D055
:10184C00A2F574429542DCD002F570529542CBD190
:10185C00D7E76FF08500E5E76FF08500E2E76FF002
:10186C008500DFE76FF08500DCE76FF08500D9E7D6
:10187C006FF08500D6E700BF0038014008B5024A7A
:10188C0003F0CBFA08BD00BF874E000808B5024A2A
:10189C0003F0D6FA08BD00BF8D4E000838B5456878
:1018AC0004690748206003F04CFB28B1206883686A
:1018BC001B68E968984738BD6FF01200FBE700BF62
:1018CC00D4540008F8B5064645682C6803695F686F
:1018DC00236823F001032360686803F032FB0028BF
:1018EC0063D0A968686803F053F954E8003F43F0EB
:1018FC000C0344E80032002AF7D13946304603F095
:10190C008FF92B7D1BB1A36843F00803A3606B7D9B
:10191C001BB1636843F400436360AB7D1BB1636828
:10192C0043F480336360EB7D1BB1636843F4003395
:10193C0063602B7E23B3204B9C4207D0A3F57443EA
:10194C009C4203D003F570539C4231D173681A68E2
:10195C00936843F4804393606A7E236823F0787322
:10196C0043EA42532360AA7E236823F4F81343EA24
:10197C0002432360EB7E1BB1A36843F40043A360D6
:10198C00236843F00103236000E033B9E36913F4E7
:10199C000013FAD00123F8E72AB9E26912F48002A5
:1019AC00FAD01A46F8E70020F8BD6FF01200FBE7FA
:1019BC006FF01500F8E700BF003801404FF0E0234E
:1019CC00996918699A6909B90C4B19680AB90B4BD2
:1019DC001A6810F4803F01D1914208D208490B6873
:1019EC000648006803440B604FF0E0231B69034B6F
:1019FC001B689B1A024A106818447047080500209F
:101A0C00040500200A4B102283F82320094B4FF4C5
:101A1C00FA521A600020084B18604FF0E02341F690
:101A2C003F725A6198611A6942F007021A61704755
:101A3C0000ED00E00805002004050020684620F0B9
:101A4C0007018D4619B5FFF7B9FF12480368124A12
:101A5C00516814681B1941F1000113605160002298
:101A6C0002600E490A68981A0D4BA3FB0030400A1D
:101A7C004FF4FA5300FB03F3D2184B6843F1000305
:101A8C000A604B6001F0B4FAFEF73AFCBDE819406D
:101A9C008546704704050020600000205800002097
:101AAC00D34D6210F8B500294DD0B0F1FF3F3FD0B7
:101ABC003F4B1C6801284EDD40F631039842A8BF0D
:101ACC001846461EEFF31185102383F31288BFF3DB
:101ADC006F8FFFF773FF4FF0E0239F69354A136850
:101AEC005168C31841F10001136051600021324A62
:101AFC001160324A11685A1A2FD44FF4FA5000FB75
:101B0C00062202F5F9521F322D4EA6FB0262520A32
:101B1C00C91A00FB02110A46B1F5806F38BF4FF4A9
:101B2C008062284B994236D9214B264A1A6018E01C
:101B3C004FF0E022136923F0010313611C4B4FF0AB
:101B4C007F421A6026E01A4B1C68B0F1FF3FB1D1FE
:101B5C004FF40360B0E70026B4E7154B4FF48062F6
:101B6C001A604FF0E0239969114A1268013A5A61E0
:101B7C0000229A618F4211D2641A3C440D4A1368B8
:101B8C0051681B1941F100011360516085F31188F4
:101B9C00BFF36F8FF8BD064B1A60E2E77F1A054A58
:101BAC0013685168DB1941F1000113605160EDE7D6
:101BBC0008050020600000200405002058000020CB
:101BCC00D34D621000DCFF0038B5EFF31185102304
:101BDC0083F31288BFF36F8F084B1C68084B1B688C
:101BEC00E41AFFF7EBFE204485F31188BFF36F8FE7
:101BFC00044BA3FB0030400A38BD00BF600000203E
:101C0C0058000020D34D621038B5EFF31185102326
:101C1C0083F31288BFF36F8F044B1C68FFF7CEFE63
:101C2C00204485F31188BFF36F8F38BD600000200E
:101C3C00284A9368D26802F0030213F00C030AD00E
:101C4C000C2B06D0042B1FD0082B20D000200246D2
:101C5C0010E0012AF6D11F4A126812F0080F0CD1BD
:101C6C001C4AD2F89420C2F303221B4951F82220BB
:101C7C0043B100200C2B0DD07047164A1268C2F3EA
:101C8C000312F2E71046F5E714480022F2E7144875
:101C9C000022EFE70F4BDB6803F00303022B16D097
:101CAC00032B00D10E4A0B49CB68C3F3021301334B
:101CBC00C868C0F3062002FB00F0B0FBF3F0CB6861
:101CCC00C3F3416301335B00B0FBF3F0D4E7034A89
:101CDC00E9E700BF00100240185B00080024F40084
:101CEC0000127A00421E294B9A424CD8284B1B6892
:101CFC0003F4C063B3F5007F11D0264B984229D86A
:101D0C00A3F5F403A3F59053984232D8224B984292
:101D1C0032D8224B984232D8002108461CE0204B86
:101D2C0098420BD81F4B98420BD81F4B98420BD89C
:101D3C001E4B98420BD8002108460DE004210020D0
:101D4C000AE00321002007E00221002004E0012129
:101D5C00002001E000210120154A136823F007033D
:101D6C000B431360136803F0070399420AD0012058
:101D7C00704703210020EFE702210020ECE701214E
:101D8C000020E9E770470120704700BFFFB3C4048F
:101D9C000070004080BA8C01001BB700808D5B0086
:101DAC000090D003006CDC020048E8010024F40031
:101DBC0000200240034B00E01433034A9342FBD350
:101DCC00704700BFD45400088855000838B5EFF3AD
:101DDC001185102383F31288BFF36F8F054B9C681A
:101DEC0003F0C7F885F31188BFF36F8F2046FEF719
:101DFC0057FC38BDE801002038B505460A4B53F8AE
:101E0C00204002E02368984708346B1C064A52F8BD
:101E1C002330A34206D96368002BF3D0204603F08D
:101E2C00ABF8F1E738BD00BF685B0008F0B587B0D0
:101E3C00044600EB4006114D05EB861600EB400006
:101E4C00C4EBC4020E4B03EB82030E4A0592012233
:101E5C0004920F22039200220292019200930A4BE9
:101E6C004FF4A072094901EBC011304600F062FA40
:101E7C00737B23F00403737307B0F0BD680000207C
:101E8C00E8010020585B0008C74F0008800D0020B7
:101E9C0008B553EA020102D100F054FE08BD024914
:101EAC00183001F01FF8F9E70D52000810B586B094
:101EBC00184C14E0636A0593236A0493E369039353
:101ECC00A36902936369019323690093E368A26891
:101EDC006168206800F02EFA23685C6630340E4B83
:101EEC009C42E7D300F00CFD0A4C00E030340A4B66
:101EFC009C420BD2A26AE36AB3F1FF3F08BFB2F176
:101F0C00FF3FF3D02068FFF7C3FFEFE700F010FDB1
:101F1C0006B010BD205800082058000808B50B4B1F
:101F2C0001221A700320FFF767FF01F011F903F08B
:101F3C0043F80420FFF760FFFFF7B8FFFEF720F926
:101F4C00034A137B23F00103137308BD2105002002
:101F5C002801002008B50146014A0248FEF794FC0E
:101F6C00291F00082801002008B50348034A121A4B
:101F7C00002103F019F808BD5800002024050020AA
:101F8C0010B50446FFF752FF04EB44030E4901EB76
:101F9C0083110E4BC4EBC40203EB8202D1601474A8
:101FAC0004EB44100A4901EB801101F50461516006
:101FBC00E21C03EB0212C4EBC40403EB84039A612E
:101FCC000123137210BD00BF68000020E80100203F
:101FDC004005002070B586B000F0E2FC104D114BAE
:101FEC00DD61114B059301230493002403940294A7
:101FFC00019400940D4B4FF480620D49284600F07B
:10200C0099F906466B7B23F004036B73284603F0A7
:10201C00AFF82046FFF7B4FF304606B070BD00BFE6
:10202C0028010020E8010020605B0008291F00083F
:10203C00000F002008B50020FFF7DEFE194B83F3DC
:10204C000888194C636943F400736361F02384F8C6
:10205C0022300023E37723766376A37684F820304E
:10206C00636A43F4E0236362FEF7E8FAFEF730FCA0
:10207C004FF0FF33A362E362FEF7E0FCFEF758FC7F
:10208C000A4800F0CBF9FFF795FEFEF7EFF80120B8
:10209C00FFF7B2FE0220FFF7AFFEFFF79BFFFFF743
:1020AC0059FF00BF800D002000ED00E02802002049
:1020BC002DE9F04182B00446EFF31187102181F332
:1020CC001288BFF36F8FC16899B9002950D1364B74
:1020DC009B6893F90E3023610131E160324B9B68B0
:1020EC00A36087F31188BFF36F8F002002B0BDE8A7
:1020FC00F08116461D4682682B4B9B689A42E4D0B1
:10210C0055EA060136D092F90E80414693F90E003D
:10211C0002F060FF804534DC4FF00008009601951A
:10212C0022463946214800F02FFB0028DED0EFF381
:10213C001185102383F31288BFF36F8FA36843B309
:10214C0023689C4223D013B3216993F90E0002F04B
:10215C0041FF0146204602F048FFE8B9B8F1000FF4
:10216C001AD185F31188BFF36F8F6FF00A00BDE7AA
:10217C002369B0E787F31188BFF36F8F6FF00F00FF
:10218C00B4E70146204602F030FF8046C6E72169DD
:10219C00E0E7B8F1000FE4D02946044800F084FBD6
:1021AC006FF00A00A2E700BFE80100200C05002038
:1021BC00F8B58368002B47D00446264A92689342B0
:1021CC0045D1C368012B04D9013BC36000252846C7
:1021DC00F8BDEFF31186102383F31288BFF36F8FD2
:1021EC00016902F002FF2768BC420CD03D1E18BFEB
:1021FC00012557B9A760CDB90023E36086F3118898
:10220C00BFF36F8FE3E70027F0E77A683B68136052
:10221C005A6000233B607B607A7B22F002027A7367
:10222C00BB6007F1180003F034F8E3E797F90E30C0
:10223C0023610025C7F8BC50384602F099FF31469F
:10224C00054800F031FBC2E76FF01505BFE74FF012
:10225C00FF35BCE7E80100200C050020F8B504466A
:10226C00EFF31187102383F31288BFF36F8F056888
:10227C00A84212D02E1E18BF012685B906BBA36832
:10228C00E268934224D001221344A36000230BBBC9
:10229C0087F31188BFF36F8FF8BD0025EAE76A68F2
:1022AC002B6813605A6000232B606B606A7B22F0F2
:1022BC0002026A73AB6005F1180002F0EAFFDDE779
:1022CC000023C5F8BC30284602F052FF0123DEE79C
:1022DC000022D9E73946024800F0E6FADCE700BFF5
:1022EC000C05002010B582B0EFF31181102484F39B
:1022FC001288BFF36F8F846844B1013C846081F312
:10230C001188BFF36F8F002002B010BD53EA020496
:10231C0006D0009201930246054800F035FAF3E727
:10232C0081F31188BFF36F8F6FF00F00ECE700BFE4
:10233C000C0500202DE9F04F85B004460F461546DC
:10234C001E46DDF838A0DDF83C90DDF84080DDF865
:10235C004CB000F168038366C366129B042211998A
:10236C0002F08FFE2A463946204602F05FFE0546F3
:10237C00CDF80880CDF80490CDF800A03346024685
:10238C0039462046FEF73AFA002363662667C4F8FE
:10239C0074A0C4F87890C4F87C80EFF311821023F9
:1023AC0083F31288BFF36F8F174B996AC4F88010B0
:1023BC009C6282F31188BFF36F8FBBF1000F1BD0AF
:1023CC001F22594604F1840002F0CDFF002384F84B
:1023DC00A3300D4B9B689BB1D3F8B030C4F8B03030
:1023EC00002323636363A363E363012384F838301E
:1023FC00284605B0BDE8F08F002384F88430E8E768
:10240C00C4F8B030F4E700BFE801002008B5024B77
:10241C00986800F06FFE08BDE801002001234373AB
:10242C0003730023C0F8A430C0F8A830C0F8B03053
:10243C00014B9860704700BFE80100200A4A93687E
:10244C00C3F8B8006FF00A01C3F8BC1007494B6819
:10245C0043F080534B60002383F31188BFF36F8FDD
:10246C009368D3F8BC007047E801002000ED00E051
:10247C00437B90F90D20002A51DB13F01F0F4ED136
:10248C0010B563F07F034373254A52F8203F934203
:10249C000ED100230CE05A68426003601060586053
:1024AC001EE01A461E49496A8A420FD01B687BB14E
:1024BC0073B190F90E1093F90E209142F1D0521A8B
:1024CC00002AE8DC1A46002BECD1F0E70023EEE7FB
:1024DC00134B5A6A03F1200101604260106058628C
:1024EC000F4B53F8204F9C420ED06CB10C4B9B6899
:1024FC005A7B12F01F0F0AD1DA897F2A07D9A269F9
:10250C002AB9074AD36109E0054BDC68EEE7A34220
:10251C0002D0204600F028FC014BDC6110BD704756
:10252C00E801002010B5437B90F90D20002A14DB44
:10253C00154B9A6853F8204F9C4219D0C4B1824273
:10254C0019D0537B13F01F0F15D1D3897F2B12D9C0
:10255C00A36983B90C4BDA6114E003F07F03437376
:10256C004268036813605A60002303604360DFE72E
:10257C00054BDC68E3E7A24202D0204600F0F4FBF6
:10258C00014BDC6110BD00BFE80100202DE9F843D0
:10259C0005460C46404B9E68737B13F0600F28D0A9
:1025AC0013F0200F2AD008271F4222D13B4373730C
:1025BC0013F0800F24D1082F2DD04FF00009364B8B
:1025CC0053F8208F98454BD0B8F1000F48D0324BC0
:1025DC009B68434502D0404600F0C6FB2E4BC3F827
:1025EC001C80102F05D0304600F01EFCB9F1000FF6
:1025FC003AD184F31188BFF36F8F46E01027D3E7ED
:10260C0003F07F0373737268336813605A6000239E
:10261C0033607360CFE7B3685BB172683368136083
:10262C005A60002333607360727B22F00202727373
:10263C00B360304602F068FD06F1680002F069FDF7
:10264C00154B9B689E4202D04FF00009B7E7EFF3A1
:10265C00058313B94FF00009B1E74FF00109AEE75C
:10266C000D4BD3F80C80B2E70C48FFF7D7FEC0E750
:10267C00EFF31184102383F31288BFF36F8F02F0F2
:10268C00A7FC84F31188BFF36F8F6B7B13F0600F83
:10269C00EED1BDE8F88300BFE8010020280200203D
:1026AC00B3F1FF3F08BFB2F1FF3F00D1704708B54F
:1026BC000249183000F016FC08BD00BF0D5200088E
:1026CC0010B5437B90F90D20002A0ADB437B63F0A5
:1026DC007F0343732B4A52F8203F934219D10023B6
:1026EC0017E003F07F0343734268036813605A607A
:1026FC00002303604360E9E75A684260036010609E
:10270C0058601EE01A461F49496A8A420FD01B685E
:10271C007BB173B190F90E1093F90E209142F1D068
:10272C00521A002AE8DC1A46002BECD1F0E7002301
:10273C00EEE7144B5A6A03F120010160426010600D
:10274C005862104B9A6853F8204F9C420ED06CB1D3
:10275C0082420ED0537B13F01F0F0AD1D3897F2BEB
:10276C0007D9A3692BB9074BDA6109E0054BDC6883
:10277C00EEE7A24202D0204600F0F6FA014BDC61F3
:10278C0010BD00BFE801002010B50C4611460A48E8
:10279C0082680A4B1A60EFF31183102383F31288BB
:1027AC00BFF36F8FDDE90223806802F0D5FC204671
:1027BC00FFF744FE10BD00BFE80100200C0500200F
:1027CC002DE9F04104460E460023EFF3118510224B
:1027DC0082F31288BFF36F8F1F463FE05A68626026
:1027EC00236014605C601CE01A462E48406A8242EA
:1027FC000DD01B686BB163B193F90E209142F3D0ED
:10280C00521A002AEADC1A46002BEED1F2E700231A
:10281C00F0E7244B5A6A03F12001216062601460D6
:10282C005C62204B53F8208F98450DD0B8F1000F07
:10283C000AD01C4B9B68984502D0404600F094FA95
:10284C00184BC3F81C8004E0164BD3F80C80F0E74F
:10285C00A67385F31188BFF36F8F0123F3B9637BE4
:10286C0003F01F02002A0CBF01270027F0D103F050
:10287C007F0363736268236813605A6000232360CC
:10288C00636071B2A173637B63F07F036373054A6A
:10289C0052F8203F9342AED10023ACE73846BDE856
:1028AC00F08100BFE801002008B50B4659B9EFF3E1
:1028BC00058242B9064AD0699268904203D0084614
:1028CC00FFF7BCFD03E083F31188BFF36F8F08BDE6
:1028DC00E801002008B5034650B9EFF305823AB978
:1028EC00064AD1699268914202D0FFF7A7FD03E036
:1028FC0083F31188BFF36F8F08BD00BFE801002080
:10290C000023EFF31181102282F31288BFF36F8F33
:10291C0009E0064B9A68D37B013BD37381F3118892
:10292C00BFF36F8F0123002BF3D07047E801002019
:10293C0038B50023EFF31185102282F31288BFF310
:10294C006F8F0EE0154BDC6817E0A24202D02046D8
:10295C0000F00AFA114BDC6185F31188BFF36F8F1D
:10296C000123BBB90D4B9A68D17B0131D17353F85C
:10297C00204F9C42E6D0002CE4D0537B13F01F0F69
:10298C00E3D1D3897F2BE0D9A369002BDDD1034B95
:10299C00DA61E1E702F03AFC38BD00BFE801002043
:1029AC0008B5024802F03DFC08BD00BF040200203F
:1029BC0038B5EFF31184102383F31288BFF36F8FB4
:1029CC00224B9A685B6A9A4205D013685168126868
:1029DC000A60516006E00023F8E71C4A526A9342F1
:1029EC0012D01B6893B1194A906890F90E1093F9A4
:1029FC000E209142F1D0521A002AEEDD5A68426044
:102A0C000360106058600AE00023EBE70F4B9A68F4
:102A1C00596A03F12000106051600A605A620B4B36
:102A2C0053F8205F9D420DD065B1084B9B689D42C9
:102A3C0002D0284600F098F9044BDD612046FFF7E0
:102A4C00FDFC38BD014BDD68EFE700BFE80100205D
:102A5C002DE9F04150EA010333D004460D466FF0E6
:102A6C0001031B1A4FF0FF3262EB0102012B72F1D2
:102A7C0000022ADB6FF00106361AEFF311881023DF
:102A8C0083F31288BFF36F8F124FB868124B186024
:102A9C00FFF748FDB86822462B461049183000F065
:102AAC0021FABA68537B43F0040353734046FFF793
:102ABC00C5FC02F016FC301A002800DC0020BDE832
:102ACC00F081FFF775FF0020F9E702F00AFC061908
:102ADC00D3E700BFE80100200C0500200D520008D0
:102AEC0038B505460C46FFF7B3FFB4F1FF3F08BFFE
:102AFC00B5F1FF3F21D0C317093043F1000300218A
:102B0C00C21818D20A440E49A1FB024525F0030451
:102B1C0004EB9504121B801A63F100024FF0CC33C6
:102B2C0000FB03F301FB0233A0FB01010B44400843
:102B3C0040EAC37038BD0121E4E74FF0FF30F9E7FC
:102B4C00CDCCCCCC38B5EFF31185102383F31288A0
:102B5C00BFF36F8F437B13F0040F04D185F31188FF
:102B6C00BFF36F8F38BD0446183002F092FB637BC5
:102B7C0023F0040363732046FFF77AFC29460248CE
:102B8C00FFF792FEEEE700BF0C050020014B9868A2
:102B9C00704700BFE80100202DE9F843037B03F0E8
:102BAC000107EFF31186102383F31288BFF36F8FA5
:102BBC00457B15F0080F1AD10446B14600F16808A0
:102BCC0002F06EFA10B345F020056573EFF3058340
:102BDC009BB131462046FFF7D9FC67B1002383F344
:102BEC001188BFF36F8F0423184602DF03E086F3CE
:102BFC001188BFF36F8FBDE8F88341463D4B986851
:102C0C0002F050FA3046FFF719FCE6E745F00803EE
:102C1C00637313F0800F33D1A3685BB162682368D0
:102C2C0013605A60002323606360627B22F002020F
:102C3C006273A36004F1180002F02BFB404602F013
:102C4C0068FA2C4B9A68944227D00026294B53F8EB
:102C5C00205F9D4228D03DB3AA4202D0284600F006
:102C6C0083F8244BDD61204600F0DEF8FEB9214BE1
:102C7C009B689C421FD089F31188BFF36F8FACE720
:102C8C0005F07F0545F008056573626823681360DD
:102C9C005A60002323606360BEE7EFF305830BB932
:102CAC000026D3E70126D1E7124BDD68D4E71248A2
:102CBC00FFF7B4FBDBE7EFF30583002BDBD1237BC2
:102CCC0013F0010F12D089F31188BFF36F8F00231B
:102CDC0083F31188BFF36F8F0423184602DFEFF3E1
:102CEC001189102383F31288BFF36F8F4846FFF7C7
:102CFC00A5FB72E7E801002028020020044BC01A53
:102D0C00C010044B03FB00F0034B01221A54704714
:102D1C00E8020020ABAAAAAA10050020C3897F2BC9
:102D2C0011D80E4B1B687BB190F90E200C4B1B6815
:102D3C009A420CDB437B13F01F0F0AD1094B9842CC
:102D4C0009D0012300E0002303F0010070470023A9
:102D5C00FAE70023F8E70023F6E700BF1805002088
:102D6C00140500206800002070B505460D4B1E7C34
:102D7C0006EB46030C4C04EBC304204602F089FA24
:102D8C000A4B00229A552846FFF7C8FF00B970BDC0
:102D9C00074B1A68013AD3170649204600F0A2F8EF
:102DAC00F5E700BFE8010020E80200201005002034
:102DBC0018050020092D000838B5EFF311851023F4
:102DCC0083F31288BFF36F8F144B9C68144B1B68F2
:102DDC00A34217D0124B00221A60104B1B7C114AD5
:102DEC00D35C53B12046FFF799FF30B1637B13F0EE
:102DFC001F0F0FD02046FFF7B7FF85F31188BFF3E5
:102E0C006F8F38BD2046FFF7AFFF85F31188BFF3F6
:102E1C006F8FF6E72046FFF753FCEBE7E801002045
:102E2C000C05002010050020EFF31181102383F313
:102E3C001288BFF36F8F0C4B9B6A834205D1D3F87A
:102E4C008020094B9A620AE013461BB1D3F880200C
:102E5C008242F9D11BB1D0F88020C3F8802081F3D5
:102E6C001188BFF36F8F7047E801002008B5064842
:102E7C00064A121A064902F09BF80648064A121A2C
:102E8C00064902F095F808BD000000205200002011
:102E9C00CC5B00080000002000000020CC5B000888
:102EAC00034B1868984200D070470020FCE700BF25
:102EBC003800002030B1044A5268904201D00068BA
:102ECC0070470020704700BF3800002008B5044B45
:102EDC001B680BB1002008BDFEF776FEFBE700BFB8
:102EEC001C050020B3F1FF3F08BFB2F1FF3F77D0C4
:102EFC002DE9F047044692461D4681600023EFF30E
:102F0C001187102282F31288BFF36F8F26E01AF11B
:102F1C00010845F10009FFF7D9FF18EB000349EB55
:102F2C00E070236160613BE0521A66EB03030261BF
:102F3C0043614368636020601C60446005E0294B7A
:102F4C005A682360626014605C60FFF7A9FF8442DA
:102F5C003AD087F31188BFF36F8F0123002B3DD13B
:102F6C0053466FF00101B1EB0A014FF0FF3060EBFB
:102F7C000502002ACBDB1C4A116852685B1842EB35
:102F8C0005026FF00101C91A60EB020308461A46EC
:102F9C00012973F1000301DA012000222061626132
:102FAC00FFF77EFF0028CAD0026946692169636970
:102FBC00914273EB060EB7DB891A63EB06032161B2
:102FCC006361FFF777FFEDE7084B1B68002BC0D15F
:102FDC0002F042F90021FEF765FDBAE7BDE8F08783
:102FEC00704700BF38000020000300201C050020A3
:102FFC0070B5EFF31186102383F31288BFF36F8F34
:10300C002A4B1860FFF74CFF044623E0284A13684C
:10301C0051685B1941EBE57113605160002200238C
:10302C00C4E90423204602F000F986F31188BFF3AB
:10303C006F8FA36820469847EFF31186102383F314
:10304C001288BFF36F8F194A13685B1B1360FFF76D
:10305C0027FF04463CB125696169144B1A68D317E4
:10306C00AA428B41D2DA44B1236962690F490968DB
:10307C005B1A62EBE172236162610D4A0B4D2868A9
:10308C00136851681B1841EBE07113605160002408
:10309C002C6002F0E1F82146FEF704FD86F311885E
:1030AC00BFF36F8FFFF788FE70BD00BF1C050020BB
:1030BC000003002010B50022EFF31184102383F3DA
:1030CC001288BFF36F8F134611460CE0FFF7FEFE1C
:1030DC00074A13685168C31841EBE07184F31188F7
:1030EC00BFF36F8F0122002AF0D0184610BD00BF2D
:1030FC000003002008B502F012F9014B586108BD1D
:10310C00E801002038B5EFF31185102383F3128802
:10311C00BFF36F8F0D4B5C693CB90C4B00225A61AD
:10312C0085F31188BFF36F8F38BD02F0F8F8041BDC
:10313C00064B986890F8383023B92146034802F0C2
:10314C00D4F8EAE7214602F0E2F8F6E7E8010020BD
:10315C0008B5024800F049FB08BD00BF805B0008C1
:10316C0010B5064C05E0A2686168204602F0DDF857
:10317C001434034B9C42F6D3002010BD52000020A7
:10318C00520000200FB407B5064B04AA186852F879
:10319C00041B019200F008F803B05DF804EB04B0D6
:1031AC00704700BF245900082DE9F04F8DB04368DB
:1031BC000293837815469A07804640F10D810024CE
:1031CC000E78002E00F00A81252E0BD04B1C039399
:1031DC000134029B4146304698470028C0F2F680E5
:1031EC000399EDE74E788B1C252E0393F0D0002726
:1031FC00B946BB46BBF11F0F38D8A6F12003102BE4
:10320C000AD8DFE803F02A0909300909092109095C
:10321C000928092D09091F00A6F13003092B33D900
:10322C002A2E37D11BF0400F55F8043B40F082801A
:10323C00002BA7BF4BF0200B9946C3F100094BF0B4
:10324C00280B01E04BF0010B039B13F8016B03936C
:10325C00002ECFD130E04BF0020B4BF0040BF3E718
:10326C004BF0080BF0E74BF0100BEDE7BBF17F0FC9
:10327C0019D8A6F13003092BD2D81BF0400F03D07C
:10328C000A2101FB0737DFE70A2101FB09394BF063
:10329C00200BD9E72E2E06D11BF0400F40F09E805C
:1032AC004BF0400BD0E76C2E31D02BD8682E36D09B
:1032BC006A2E3CD04C2E3AD0002F46F02003B8BFDB
:1032CC002BF04002A3F16501BCBF1FFA82FB002763
:1032DC00022901D9612B2FD1073525F00705DFF81D
:1032EC00ACA2083507271BF0080F66D00AEB070BBA
:1032FC0056465E4563D1A4EB0A0A06EB0A02A9EB1B
:10330C0007096FE1742E9FD07A2E9DD0D4E71BF065
:10331C00800F18BF4BF4007B4BF0800B94E71BF431
:10332C00807F18BF4BF4007B4BF4807B8CE74BF415
:10333C00207B89E71F4687E7A6F16301122900F27B
:10334C00F080DFE811F013004F00EE00EE00EE000D
:10335C00EE004F00EE00EE00EE00EE00EE00FE0080
:10336C00E900EE00EE001B00EE00AF0055F8043B48
:10337C008DF8183001270DF1180AB4E755F804AB95
:10338C00834BBAF1000F08BF9A461BF0400F14BFD5
:10339C0039464FF0FF31504601F0F5FF0746A2E7E2
:1033AC00029B41462020984700280FDB013EB74284
:1033BC00F6D34C44A41BB14698E74E46F7E716F8F3
:1033CC00010B029B41469847002892DA98F802308C
:1033DC0043F0040388F802304FF0FF3420460DB060
:1033EC00BDE8F08F1BF0800F34D01BF4007F2CD085
:1033FC00073525F00705AA4669685AF8080B2BF023
:10340C0010050029ADB237DA404261EB410145F4B9
:10341C0080650DF1180B0A235A4601F0C0FFA0EB92
:10342C000B0301936B0662D5019B25F001019F42B2
:10343C0089B240F3A180002E00F0998015F01002A3
:10344C0040F09C80BB460D4623E0AA465AF8040B7C
:10345C00C117D4E7AA461BF4807F5AF8041B01D18C
:10346C000846F5E71BF4007F15BF48B208B241F3DC
:10347C00C01141F3C031C2E750EA0103C9D11BF0BE
:10348C00400FC6D0002FC4D12BF0110295B2BB4611
:10349C00019740F2064115EA01021CBF0BF1010B2A
:1034AC0000222CE02BF010021FFA82FB0A231BF0E7
:1034BC00800C49D01BF400711DBF073525F00705A2
:1034CC00AA46AA461ABF5AF8080B69685AF8040BA0
:1034DC0050EA010545D12BF016051BF0400FADB29B
:1034EC0042D0002F40D12BF0170295B2019715F066
:1034FC00100248D0019B002E42D103F1010B290789
:10350C005AD4EB0706D5D9456FDD0199A9EB0B030E
:10351C005F18CB465B4649E04BF0100B1023782626
:10352C00C5E7782B04D1C6F1780343F01003BEE74E
:10353C00029B4146252098470028FFF647AF0234EE
:10354C0047E608230026B2E7AA461BF480715AF816
:10355C00040BBDD01BF400711ABFC0B2614680B21F
:10356C00B6E72BF0060295B20DF1180B54E725F0D7
:10357C001105ADB2BB468CE70D46B8E73B460D4690
:10358C0003F1020BBBE7DDF804B082E7C45B000873
:10359C00BD5B0008CDE904324146029B20209847D0
:1035AC000028FFF613AF049B059A01339945F1DC13
:1035BC00A4EB0B01CC189B460AB3029B414630206E
:1035CC0098470028FFF602AF8EB901342744019BBF
:1035DC00391B994224DC1D465DBB019AA9EB0B09F2
:1035EC00224455461446914435E0019F92E702343B
:1035FC0041463046029B98470028E7DAE6E640F25F
:10360C0006410D42E2D015F0020F14BF2B202020F2
:10361C0015F4806F04F10104414618BF2D20E9E731
:10362C00029B414630209847002804F10104CEDA71
:10363C00CCE606AB013D4146585D029B98470028FD
:10364C00CADAC3E6029B414620209847002804F1C1
:10365C000104FFF6BBAEA9EB0403002BF2DCBFE5C3
:10366C00704738B513468568046912F4801F07D07B
:10367C0012F4402F04D012F0010F01D082F4402339
:10368C0023F4801213F0010F0AD023684FF0010CC1
:10369C000CFA01FC43EA0C0323602B68984738BDF5
:1036AC0023684FF0010C0CFA01FC23EA0C03236095
:1036BC00F3E708B503468C4600681979DA8842EAC4
:1036CC000C02FFF7CEFF08BD08B5034600681B7956
:1036DC000121994083685B69984708BD08B520EAC9
:1036EC00E073D9178A0042EA93729800C01841EB34
:1036FC00020100184941FFF7F3F908BD10B5131D7D
:10370C0050F8234074B9C368012494402343C36028
:10371C00043240F82210CB001A1D89B281520633B4
:10372C00C15210BDE2000432835A4FEAC10C0CF1B5
:10373C00040E20F80E300CF1060C20F80C40DB00C7
:10374C00063389B2C1528152EBE708B500EBC103D5
:10375C005A885208B2FA82F2C2F11F02FFF7CEFF6A
:10376C0008BD70B50346043AC81D20F007000A4492
:10377C0022F00702121AD508186085600023C36076
:10378C00B5FA85F1C1F1200EC1F124018900CE1DDD
:10379C00F10805E003F1040C002440F82C4001333F
:1037AC007345F7DB4C00A4B244804FF0000CA0F83A
:1037BC0000C044F0010444806B1A4FEA430E26F01B
:1037CC000704A51C20F805E0015322F00704951C02
:1037DC0020F805C002440353538843F0010353807F
:1037EC00FFF7B3FF70BD002070470FB400B583B076
:1037FC0004A951F8040B0191FCF7FEFC03B05DF831
:10380C0004EB04B07047704708B5012802D0FEF7EE
:10381C00DDFA08BDEFF30583F9E708B5014600684A
:10382C00FFF7F2FF08BD08B5FCF73EFDFCF768FD9D
:10383C0008BD0020704700230B70704708B50023AB
:10384C001370CB1E092B1AD8DFE803F005090D11F4
:10385C001919191919141146FCF762FE10E0002110
:10386C00FCF7F4FD0CE00021FCF75AFD08E0FCF736
:10387C009DFD05E01146FFF7DEFF002000E0002073
:10388C0008BD08B540B2FCF773FF08BD08B501319F
:10389C0040B2FCF77BFF08BD08B500210120FFF703
:1038AC00B3FF08BD61B662B680F31188BFF36F8FAA
:1038BC00704772B6002383F31188BFF36F8FBFF389
:1038CC004F8F30BF62B6BFF36F8F704743685A1E7D
:1038DC00134206D11F2B06D903681A4205D00020CB
:1038EC00704700207047002070470120704700B5DA
:1038FC0085B00B6801934B688A68202B12D9B3F101
:10390C00004F11D8013BB3FA83F3C3F11F035B00E3
:10391C0003F03E031343039301A9FDF73DF805B0F3
:10392C005DF804FB0823F5E73E23F3E72DE9F843A4
:10393C0080460F4699461646002509E02146F0B20E
:10394C00FFF7D5FF064610F1160F14D001360135DE
:10395C00BD4210DA05EB450408EB84046268002ACA
:10396C00F5D0B9F1000FE9D02046FFF7AFFF0028E2
:10397C00E4D16FF015063046BDE8F883F0B585B09C
:10398C00054603A8FCF78AFC0646002424E0B3F5A0
:10399C00801F20D1576809589368202B64D9B3F144
:1039AC00004F63D8013BB3FA83F3C3F11F035B00F1
:1039BC0003F03E0343F0885343F430230097019106
:1039CC00029369462878FCF7E7FF0028C0F2A8802C
:1039DC002B7801332B700134B44280F0A480200189
:1039EC00039901EB0412D3681B0D1B05B3F5000FF3
:1039FC005ED01DD8B3F5001F3AD0B3F5800FC6D1F9
:103A0C00576809589368202B4ED9B3F1004F4DD805
:103A1C00013BB3FA83F3C3F11F035B0003F03E03D6
:103A2C0043F0E06343F40033009701910293C8E73D
:103A3C00B3F1807F56D0B3F1007FCCD157680958D1
:103A4C009368202B68D9B3F1004F67D8013BB3FAC8
:103A5C0083F3C3F11F035B0003F03E0343F48023A5
:103A6C00009701910293ACE70823A3E73E23A1E75B
:103A7C00576809589368202B12D9B3F1004F11D80D
:103A8C00013BB3FA83F3C3F11F035B0003F03E0366
:103A9C0043F0885343F4002300970191029390E77D
:103AAC000823F5E73E23F3E70823B9E73E23B7E7FE
:103ABC00576809589368202B10D9B3F1004F0FD8D1
:103ACC00013BB3FA83F3C3F11F035B0003F03E0326
:103ADC0043F0827300970191029372E70823F7E792
:103AEC003E23F5E7576809589368202B10D9B3F19A
:103AFC00004F0FD8013BB3FA83F3C3F11F035B00F4
:103B0C0003F03E0343F0887300970191029358E74A
:103B1C000823F7E73E23F5E708239FE73E239DE7BD
:103B2C006FF0150000E0002005B0F0BD08B5FCF703
:103B3C0047FF08BD08B5FCF74DFF08BD08B5FCF7FD
:103B4C00BDFF002008BD08B5062201210020FDF7AD
:103B5C0017F8002211460620FFF798FE07220121D4
:103B6C000846FDF70DF8002211460720FFF78EFEE0
:103B7C00082201210220FDF703F80022114608203B
:103B8C00FFF784FE092201210320FCF7F9FF002234
:103B9C0011460920FFF77AFE0A2201210420FCF7C6
:103BAC00EFFF002211460A20FFF770FE17220521B5
:103BBC000846FCF7E5FF002211461720FFF766FECA
:103BCC00282206210A20FCF7DBFF002211462820C0
:103BDC00FFF75CFEFCF7BCFF08BD01208840704776
:103BEC0008B50246084602F0030304339B000F217C
:103BFC00994041EA9201FCF7D5FF08BD08B500F0E9
:103C0C00030304339B000F2202FA03F343EA9000F0
:103C1C00FCF7E4FF08BD2DE9F04F87B091461E4636
:103C2C00109FBDF844A05B880133B2881344F2881E
:103C3C009D18002303930493ADF81430002F65D026
:103C4C008846BAF57A7F64D283689B6A02A9984742
:103C5C00002861D1BAF1000F03D13846FDF7D6F830
:103C6C008246B9F8084007FB05F3029AB2FBF3F25F
:103C7C00944238BF14466FF0004B00E00134338996
:103C8C00A34227DBDDF808C007FB04F0BCFBF0F512
:103C9C0000FB15C5002DF1D100964B4603AA5146E9
:103CAC00BCFBF0F0FDF732F80028E7DB8345E5DDDF
:103CBC00BDF80E30A8F80230BDF81030A8F804306A
:103CCC00BDF81230A8F80630A8F8084008B18346B1
:103CDC00D4E78346B8F80630B8F804205B08934262
:103CEC0028BF1346A8F80030B9F80020934203D936
:103CFC0032889A4228BF1A46A8F800206FF0004379
:103D0C009B450CD0584607B0BDE8F08F6FF0150BF3
:103D1C00F8E76FF0150BF5E76FF0040BF2E76FF0B7
:103D2C00850BEFE70388B1F800C063452DD3B2F8DB
:103D3C0000C063452CD810B5B0F802C0B1F802E051
:103D4C00F44528D3B2F802E0F44527D8B0F804C003
:103D5C00B1F804E0F44524D3B2F804E0F44523D8D8
:103D6C00B0F806E0CC88A64521D3D488A64521D846
:103D7C0000890989884220D31289904220D8634552
:103D8C0021D8734522D8002010BD6FF085007047F4
:103D9C006FF0850070476FF08500F5E76FF08500D8
:103DAC00F2E76FF08500EFE76FF08500ECE76FF05E
:103DBC008500E9E76FF08500E6E76FF08500E3E743
:103DCC006FF08500E0E76FF08500DDE76FF08500B0
:103DDC00DAE770B504460D46866881683031826832
:103DEC003A322846FFF79EFF18B933692946204618
:103DFC00984770BD10B50C460B6823B1114662682C
:103E0C0098470023236010BD436800695B698C46AA
:103E1C0021B1017959B904218CF800102AB19969A2
:103E2C00090C11709B691B0E537000207047996927
:103E3C0011F0040F03D003218CF80010EEE7996900
:103E4C0011F0020F03D002218CF80010E6E79969FB
:103E5C0011F0010F03D001218CF80010DEE70021D6
:103E6C008CF80010DAE7F0B583B005460469A66853
:103E7C00E76801AA0DF10301FFF7C6FF94F8F430CF
:103E8C009DF803108B4206D084F8F4101EB13B460B
:103E9C00019A2846B04703B0F0BD0B230B600020FD
:103EAC00704709B1072070470E20704710B40469A1
:103EBC0043685B69A160E26029B15A6942F4E0622F
:103ECC005A6110BC70475A6922F4E0625A61F8E7F3
:103EDC001AB10B60009B4B60704710F0010F04D0BF
:103EEC00009A43EA02430B607047009A43EA02438C
:103EFC004B60704770B582B0436800699D695B691F
:103F0C00AB4210D04FF00E0C0B7A13F0010F18D1FE
:103F1C0000220D2A39DC02F1120300EB83035B68EB
:103F2C002BB30132F5E74FF0000CEDE70B68DB002B
:103F3C0043F004034868C00040F0060004EB0C0694
:103F4C000FE00024062C08DC04F1200300EB8303B3
:103F5C005B68002BEAD00134F4E76FF01B040023FC
:103F6C00184614F11C0F15D1204602B070BD0B6819
:103F7C005B014868400140F01800D41D0CF1070C9F
:103F8C0002EBD2720CEB6206EBE76FF01B04002322
:103F9C001846E6E7D5F8002242F00102C5F80022E7
:103FAC000A7A06F14801009002F0010205EBC1010A
:103FBC002046FFF78DFFD5F81C320122B240134387
:103FCC00C5F81C32D5F8003223F00103C5F80032D5
:103FDC00CAE7F8B543685D69066931F00B0336D161
:103FEC000C463379002B35D106F110074FF0FF3218
:103FFC004FF0FF333846FEF75BF814F0010F17D083
:10400C00EB6943F08043EB6114F0020F15D0EB69C0
:10401C0043F00043EB6114F0080F13D02B6843F00E
:10402C0010032B6034603846FEF7C2F80020F8BD50
:10403C00EB6923F08043EB61E6E7EB6923F0004387
:10404C00EB61E8E72B6823F010032B60EAE76FF0D5
:10405C008500ECE76FF00F00E9E72DE9F84398468F
:10406C00436806695D690B79082B00F288808946E4
:10407C0017464B79032B00F285803379002B00F027
:10408C008480AB6913F0040F40F0828006F11004B9
:10409C004FF0FF324FF0FF332046FEF709F8AB68C4
:1040AC0013F0E05F15D12046FEF782F806F12400EC
:1040BC003A464346FEF716F940B94FF0FF324FF03F
:1040CC00FF332046FDF7F4FFAB68E9E76FF00A0019
:1040DC0034E013F0806F33D005F5C0753436089B8F
:1040EC003360099B73602B6803F001032B6099F814
:1040FC00053013F0010F34D02B68D9F8002043EAB7
:10410C00C20343F004032B6099F8053013F0020F3F
:10411C002ED02B6843F002032B606B6823F00F0347
:10412C0099F8042002F00F0213436B602B6843F0E4
:10413C0001032B602046FEF73BF80020BDE8F88316
:10414C0013F0006F03D005F5C8753C36C7E713F0C4
:10415C00805F03D005F5D0754436C0E700263546A0
:10416C00BDE72B68D9F8002043EA42532B60CBE71C
:10417C00D9F80830AB60D9F80C30EB60CDE76FF0B4
:10418C001500DBE76FF08500D8E76FF07200D5E71C
:10419C006FF07100D2E72DE9F8430446D0F8049093
:1041AC000569D9F8147005F110084FF0FF324FF083
:1041BC00FF334046FDF77CFF2B797BB33846FCF789
:1041CC006BFF061E2DDB6FF0720205F134012046E9
:1041DC00FFF710FE6FF0720205F13C012046FFF76D
:1041EC0009FE6FF0720205F144012046FFF702FE52
:1041FC00BB6843F0801343F40043BB60D9F8000064
:10420C0020B183685B689847064608B900232B7178
:10421C004046FDF7CDFF3046BDE8F8836FF07706DA
:10422C00F6E76FF00406F3E72DE9F04147680569FE
:10423C00D7F8148005F110064FF0FF324FF0FF3322
:10424C003046FDF735FF2B79E3B9386828B1836820
:10425C001B6829689847044630B94046FCF73AFF7A
:10426C00041E07DB01232B713046FDF7A1FF20460E
:10427C00BDE8F081386810B183685B6898476FF0CF
:10428C000404F1E76FF07704EEE710B50446002262
:10429C0011461420FFF7FAFA1420FFF7F2FA002265
:1042AC0011461320FFF7F2FA1320FFF7EAFA002267
:1042BC0011461620FFF7EAFA1620FFF7E2FA6369B7
:1042CC0043F4044343F01303636110BD00230B60FC
:1042DC004B608B60CB60036813F0040F14D0036841
:1042EC00DB080B6001234B71036813F0020F0FD036
:1042FC004B7943F002034B71436803F00F030B71CE
:10430C0043681B0CCB80704703685B0D0B60EBE7BD
:10431C0083688B60C368CB60EEE72DE9F04385B012
:10432C008046076943685D69002612E0222C07DC91
:10433C0004F10B0307EB83035E68213457F82490D8
:10434C001EB14A4669464046B047EB6843F020032D
:10435C00EB60EB6813F0030F13D0D5F8B441C4F342
:10436C000724694605F5D870FFF7B0FF062CDDDC95
:10437C0004F1200307EB83035E68363457F824906E
:10438C00DEE7EB6805B0BDE8F08308B5FFF7C5FFC5
:10439C0008BDF8B50546076943685C69A66906F06F
:1043AC000406A36803F00103334319D0A36813F088
:1043BC00020F0BD1A36813F0080F26D1A36813F0DA
:1043CC00040F25D13EB36FF0710200E00022A36808
:1043DC0043F00103A36007F134012846FFF70AFDFF
:1043EC00A36803F48073334322D0A36813F4007FD3
:1043FC0014D1A36813F4006F2FD1A36813F4806F4A
:10440C002ED186B36FF0710209E06FF00402DEE783
:10441C006FF00F02DBE76FF00402D8E70022A3680D
:10442C0043F48073A36007F13C012846FFF7E2FCDC
:10443C00A36803F48033334322D0A36813F4003F02
:10444C0014D1A36813F4002F1FD1A36813F4802F89
:10445C001ED106B36FF0710209E06FF00402DEE7C3
:10446C006FF00F02DBE76FF00402D8E70022A368BD
:10447C0043F48033A36007F144012846FFF7BAFCEC
:10448C00A36813F0E05F09D1F8BD6FF00402EEE70A
:10449C006FF00F02EBE76FF00402E8E707F124007E
:1044AC00FDF7DCFEF0E708B5FFF773FF08BD38B584
:1044BC0043685D696B6813F0040F00D138BD044686
:1044CC00FFF767FF2046FFF7CEFC6B6843F0040351
:1044DC006B60F3E700B583B001AA00F0D7FA0028AF
:1044EC0005DB019B00221979186800F0E8FA03B08B
:1044FC005DF804FBB0FBF1F002FB00F0B0FBF3F055
:10450C007047B0FBF1F07047002070470B88C3F385
:10451C000B0303F6B872C2F30B02182A15D882B03B
:10452C0003F1804303F504334A68186802431A60A8
:10453C000B88C3F30B0303F1804303F504331B68AF
:10454C000193019B002002B070476FF0850070470B
:10455C000B88C3F30B0303F6B872C2F30B02182AD1
:10456C000AD803F1804303F5043349681A6822EA38
:10457C0001021A60002070476FF0850070470A280E
:10458C0007D840F29A73C34013F0010F04D00020F7
:10459C0070476FF0850070476FF08500704710B55D
:1045AC000C460888C0F30B00FFF7E9FF00281EDB60
:1045BC006368FF2B1CD09AB202F1804202F50432E0
:1045CC00C3F38451C3F305439940136823EA0103F1
:1045DC00136061688BB203F1804303F50433CA0E98
:1045EC00C1F305418A4019680A431A60002010BDC6
:1045FC000020FCE708B50888C0F30B0000F6B87380
:10460C00C3F30B03182B0BD800F1804000F50430DA
:10461C0002684B68934301D0012008BD0220FCE7DF
:10462C00FFF7ADFF08B10120F7E70220F5E770476F
:10463C00022070470B4639B11168196041688A42F3
:10464C0009D00023136070471368036041688A42E5
:10465C00F7D14360F5E74360F3E708B50A46036812
:10466C00002101E019461B682BB19342FAD1FFF7E8
:10467C00E1FF012000E0002008BD70B504460D46A6
:10468C001646036833B1FFF7E8FF70B91EB96FF037
:10469C00150006E032B123682B602560636843B1D6
:1046AC00002070BD6FF01500FBE7002EF3D1002049
:1046BC00F7E765600020F4E770B50E461546016813
:1046CC0021B10C683CB131B90C4604E00C4602E057
:1046DC00234621461C4671B18A682A4002D04B6899
:1046EC0030469847002CF3D02368002BF1D0002CD7
:1046FC00EFD12346EDE770BD08B502460846496880
:10470C000830FFF7D9FF08BD10F4003F19D0102373
:10471C000B6010F0020F04D010F0040F45D05023A2
:10472C000B6010F0100F04D00B6843F400730B6097
:10473C001CE010F0200F19D00B6843F480630B6061
:10474C0014E010F4803F0FD000230B6010F0100F1A
:10475C0003D04FF400730B6008E010F0200F05D06D
:10476C004FF480630B6001E030230B6000F4C060F9
:10477C00B0F5806F0DD0B0F5C06F04D0B0F5007FF0
:10478C000DD0002070470B6843F4C0730B60002001
:10479C0070470B6843F480730B60002070470B6804
:1047AC0043F080030B60002070476FF0850070476A
:1047BC0043685B681B690B600020704743685B684B
:1047CC00586942400A4042405A6100207047436891
:1047DC005B6899610020704743685B6899620020B0
:1047EC00704743685A6853694B40536100207047C7
:1047FC0008B500690830FFF740FF08BD10B4046825
:10480C0091FAA1F39BB1B3FA83F35B004FF0030C65
:10481C000CFA03F324EA030391FAA1F149B1B1FABA
:10482C0081F149008A401343036010BC7047202378
:10483C00EBE72021F5E710B4846891FAA1F39BB162
:10484C00B3FA83F35B004FF0030C0CFA03F324EA86
:10485C00030391FAA1F149B1B1FA81F149008A40FF
:10486C001343836010BC70472023EBE72021F5E74E
:10487C0010B4C46891FAA1F39BB1B3FA83F35B0053
:10488C004FF0030C0CFA03F324EA030391FAA1F1A1
:10489C0049B1B1FA81F149008A401343C36010BC9D
:1048AC0070472023EBE72021F5E710B4046A91FA56
:1048BC00A1F39BB1B3FA83F39B004FF00F0C0CFAEE
:1048CC0003F324EA030391FAA1F149B1B1FA81F19E
:1048DC0089008A401343036210BC70472023EBE726
:1048EC002021F5E710B4446A090A91FAA1F39BB1AF
:1048FC00B3FA83F39B004FF00F0C0CFA03F324EA8A
:10490C00030491FAA1F149B1B1FA81F189008A400D
:10491C001443446210BC70472023EBE72021F5E7D9
:10492C002DE9F8430F461546984643685E68012406
:10493C008C4002F03009C2F38013706820EA040046
:10494C008B4018437060C2F3C11221463046FFF70A
:10495C0072FFC5F3412221463046FFF789FFB9F1BA
:10496C00200F07D04FEA191221463046FFF746FFB9
:10497C00BDE8F883072F05D8424621463046FFF79D
:10498C0094FFEFE7424621463046FFF7ABFFE9E7DD
:10499C002DE9F04383B005460E461446D0F810803E
:1049AC0001A91046FFF7B0FE074668BB14F4403966
:1049BC000BD0D8F8103023FA06F212F0010F04D104
:1049CC000122B2401343C8F8103014F4003F05D054
:1049DC0014F4002F1CD114F4802F1FD10023019A42
:1049EC0031462846FFF79CFFB9F1000F0CD1D8F8DF
:1049FC00103023FA06F212F0010F05D00122B2405A
:104A0C0023EA0203C8F81030384603B0BDE8F0833F
:104A1C000121B1402846FFF7DAFEDFE70121B14062
:104A2C002846FFF7D9FED9E738B504460D460846A7
:104A3C00FFF7E4F8A04200D038BD29462046FFF726
:104A4C00CCF80446FCF7F6F82046FCF74DF90021AB
:104A5C002046FCF7F7F8EFE7F8B507460D46164683
:104A6C001C46FFF75DFF112C01D00020F8BD16F499
:104A7C00006F05D00121A9403846FFF7A8FEF4E7E6
:104A8C000121A9403846FFF7A7FEEEE700B5036801
:104A9C00136001E008331360136890F804C0D0F879
:104AAC0000E00EEBCC0C634505D293F805C08C45A9
:104ABC00F0D1002001E06FF001005DF804FBF8B5C7
:104ACC0006460F460024254615E002F01F0110296A
:104ADC0020D011291CD0530A1B0103F4F873C2F324
:104AEC00431002F01F0229461843FCF707FE00286A
:104AFC0013DB0134E4B2BC420ED206EBC40356F80D
:104B0C00342012F0100FE0D15D6845F02005E2E78B
:104B1C005D68E0E73025DEE70020F8BD43681868E3
:104B2C00C1F34B1301F01F01C05801238B401842F5
:104B3C0014BF0123002313700020704710B4436886
:104B4C001C68C1F34B1001F01F01235801228A404D
:104B5C0013432350002010BC704710B443681C68EA
:104B6C00C1F34B1001F01F01235801228A4023EAA4
:104B7C0002032350002010BC704738B504460D4684
:104B8C00FFF7DCFF29462046FFF7E7FF002038BD82
:104B9C0008B58368DB680BB1984708BD6FF0570008
:104BAC00FBE730B583B00C4643681D68026910689A
:104BBC00D9688368DB6873B101AA984700280ADBBF
:104BCC002B6823F400432B60019B03EB5403B3FBD2
:104BDC00F4F39BB2EB6003B030BD436829B11A68A3
:104BEC00936843F48043936070471A68936823F486
:104BFC00804393607047B0F5805F07D0B0F1805F61
:104C0C0007D109B1012070470220704721B9042057
:104C1C00704719B903207047032070470220704772
:104C2C002DE9F04104460D46476803695E68097931
:104C3C00012914D0022915D14FF480636A79012A15
:104C4C0015D0022A15D07AB14FF40052A879022857
:104C5C0012D0042816D0002967D1002014E04FF49C
:104C6C00C063EBE70023E9E74FF48052EEE7002244
:104C7C00ECE74FF44052E9E709B1002004E04FF0B3
:104C8C00805001E04FF48050E979012950D04FF069
:104C9C00000C032914BF00210121AE424BD0D7F8E0
:104CAC000080D8F8007007F4C06E734506D0D8F8B1
:104CBC00007027F4C0673B43C8F8003063681F6876
:104CCC007B6803F440539A4204D07B6823F440532E
:104CDC0013437B6063681A68136803F010239842CF
:104CEC0004D0136823F010231843106063681A680B
:104CFC00936803F440739C4505D0936823F4407388
:104D0C004CEA0303936063681B689B6813F480434D
:104D1C0000D00123003B18BF0123994226D12968FA
:104D2C003368994226D1BDE8F0814FF48050ABE74F
:104D3C004FF4407CADE73E68316821F0805121F49E
:104D4C00B051034319433160736823F44053134348
:104D5C00736063681A68936823F440734CEA030326
:104D6C00936029682046FFF71CFFDCE72046FFF71D
:104D7C0034FFD4E72046FFF714FF2B683360D2E7EB
:104D8C0038B504460D4603695B681B680B604368C5
:104D9C001B681B6803F4C063B3F5806F31D0B3F5A7
:104DAC00C06F30D101232B7163681B685B6803F4FF
:104DBC004053B3F5805F2AD0B3F5405F29D023B3BD
:104DCC0003236B7163681B681868196801F4C06170
:104DDC0000F01020FFF70FFFA87163681B689B6839
:104DEC0003F44073B3F5407F15D00023EB71636877
:104DFC001B689B6813F4804F01D00323EB710020D8
:104E0C0038BD0223CFE70023CDE70123D9E70023E8
:104E1C00D7E70223D5E70123E8E708B5436818680C
:104E2C00C36913F0080F01D008230362C36913F0A0
:104E3C00200F02D09047002008BD4FF0FF30FBE759
:104E4C0010B543681868C36913F0800FFBD0EFF3FB
:104E5C001184102383F31288BFF36F8FC36913F08F
:104E6C00800F04D184F31188BFF36F8FEBE7904769
:104E7C0084F31188BFF36F8F10BD838C0B70704758
:104E8C00C9B20185704743681B68D86910F00800E7
:104E9C0000D00120DA6912F0010F01D040F00200BD
:104EAC00DA6912F0020F01D040F00400DA6912F056
:104EBC00040F01D040F02000DA6912F4807F01D099
:104ECC0040F0080010F0080F02D04FF480721A6204
:104EDC0010F0010F01D008221A6210F0020F01D05D
:104EEC0001221A6210F0040F01D002221A6210F093
:104EFC00200F01D004221A62704700B583B001AABA
:104F0C00FFF7C4FD002805DB019B00221979186806
:104F1C00FFF7D5FD03B05DF804FB38B504464568D2
:104F2C00FCF7BCFC00280BDB0021286AFFF7E5FF2F
:104F3C00002805DB2046FCF7C5FC002800DB002020
:104F4C0038BD60B1C3685A7812F0010F03D01B78DA
:104F5C001BB10020704700207047012070470020D3
:104F6C007047EFF31183102383F31288BFF36F8F15
:104F7C00FEE708B5FFF7F5FF10B5446803688BB181
:104F8C002046984730B100280ADBFF2800DDFF20BF
:104F9C00E3681870E268537843F00103537010BD56
:104FAC004042F2E70020F5E708B500F0D4F908BD5F
:104FBC0008B500F0C2F908BD704708B5EFF31183CE
:104FCC00102383F31288BFF36F8FFEF772FCF5E7A3
:104FDC0000BF7047884200DA014611F17F0F01DBF8
:104FEC00084670476FF07E00704708B5806890F9EE
:104FFC000E308B4201D1002008BDFDF7E1FBFBE731
:10500C00034600209860D8601B605B6070473AB123
:10501C008A4208D38160C260006040600020704703
:10502C006FF0150070476FF015007047F8B5054626
:10503C00D31D23F007037F3323F03F0301F1400717
:10504C00A3F140063F2B07D8002282F31188BFF34F
:10505C006F8F0422104602DFCC183246AA21384644
:10506C0000F079F921462846FBF736F9073020F095
:10507C000700C5F8A470C5F8A860C5F8AC00201AE4
:10508C00F8BD10B400248460037342738173C4733D
:10509C008461C46110BC704708B5FEF733F808BDD5
:1050AC000020704738B504460D46FDF73BFA637B8C
:1050BC0043F00203637335B3A5602B689D420DD199
:1050CC0000230BE05A686260236014605C601AE095
:1050DC001A4669688A420FD01B687BB173B194F988
:1050EC000E1093F90E209142F2D0521A002AE9DCEC
:1050FC001A46002BEDD1F0E70023EEE76B68256034
:10510C0063601C606C6038BD08B5183000F0C1F8E5
:10511C0008BD70B50646046884421AD0DCB16268DA
:10512C00236813605A60002525606560637B23F05B
:10513C0002036373A56004F1180000F0AAF8C4F828
:10514C00BC502046FDF794F93468A642E6D12C46B3
:10515C00E4E70024E2E770BD70B5044616461D4630
:10516C00FFF7A0FF32462B462046FDF799FA70BD9B
:10517C0038B504460023EFF31185102282F3128810
:10518C00BFF36F8F04E085F31188BFF36F8F01239A
:10519C0043B92046FFF784FF0028F4D12046FDF7E1
:1051AC0067F9F0E738BD38B504460023EFF31185F5
:1051BC00102282F31288BFF36F8F0BE0637B23F016
:1051CC00040363732046FDF753F985F31188BFF38D
:1051DC006F8F01239BB9637B13F0280FF5D1A36864
:1051EC00002BEBD06268236813605A6000232360A5
:1051FC006360627B22F002026273A360DEE738BD5B
:10520C0008B501211838FFF7CEFF08BD08B5EFF33C
:10521C001180102383F31288BFF36F8FFDF75AFBB5
:10522C0008BD031D43608360704710B50446FDF74D
:10523C0041FE48B102460369416920691B18606947
:10524C0041EB0001136151616268236813605A607D
:10525C0000232360636010BD10B5FDF721FE0446EA
:10526C00FDF734FE7CB1236962691B1A62EBE072B4
:10527C00B3F1004F72F1000108DA002A01DB184685
:10528C0010BD0023FBE76FF00040F9E76FF0004022
:10529C00F6E7F8B504460023EFF31187102282F3EA
:1052AC001288BFF36F8F6FF015000AE0FFF7D4FF81
:1052BC000021FCF7F7FB304687F31188BFF36F8FA3
:1052CC0001231E4663B92368002BF5D0FDF7E8FDDA
:1052DC0005462046FFF7A9FFA542E7D03046EBE78D
:1052EC00F8BD08B5FDF7E6FE08BD83691A7A6AB108
:1052FC0010B48468C268944206D018685A680918B9
:10530C0042F1000219605A6010BC70477047026B82
:10531C00436B891843F1000301634363704708B57D
:10532C00FCF772FC00B9012008BD10B500F10C04AB
:10533C00C4600461FEF715FA10BD0A44914200F1F5
:10534C00FF3300D1704710B511F8014B03F8014F32
:10535C009142F9D110BD02440346934200D17047EB
:10536C0003F8011BF9E710B50139044632B111F805
:10537C00013F00F8013B013A002BF7D10021FFF768
:10538C00EAFF204610BD10B5024601448A4213467E
:10539C0003D01C780132002CF8D1181A10BDF0B5CE
:1053AC00C3F137070446FFB203F01F031046082B66
:1053BC00E6B233D0102B3ED06508A40844EA8174C1
:1053CC0045EAC1752D194FEA910242EB51022909A8
:1053DC0041EA02716D1842EB1212290A41EA02618C
:1053EC006D1842EB1222290C41EA02416D1842EB76
:1053FC001242AD1842F10002EC0844EA4274D108A2
:10540C0004EB8402A6EB4205EDB2092D0CD9013454
:10541C00A5F10A0541F10001EDB212E0E40844EAFD
:10542C00417406F00705C908303554EA010200F84A
:10543C00015BBCD1F0BD240944EA017406F00F05F0
:10544C000909092D84BFED19EDB2EDE7014800689B
:08545C00704700000803002066
:10546400E1140008D454000865020008000000009C
:105474006D3100080000000000000000E85400083E
:10548400DD16000838550008533B0008FC5400089A
:10549400DD1600084C550008DD16000824550008E8
:1054A400DD16000810550008274F00086055000855
:1054B4000516000800000000111A00080000000092
:1054C400F10A0008000000004911000874550008A2
:1054D400C05900080000000098580008440000204B
:1054E40000000000A45A0008B85A000888580008B0
:1054F4004E00002000000000445900080000000095
:10550400000000004000002028030020D0590008BB
:10551400105A00086458000846000020B404002013
:10552400E0590008245A0008645800084800002084
:10553400C8040020F0590008385A000864580008CC
:105544004A000020DC040020005A00084C5A0008DD
:10555400645800084C000020F0040020BC5A0008E5
:10556400CC5A0008B4580008500000202400002041
:1055740064590008745900082058000842000020AB
:04558400A803002058
:1055880000000000A538000800000000A538000849
:1055980000000000A538000800000000A538000839
:1055A80000000000A538000800000000A538000829
:1055B80040590008150B00083C590008150B000855
:1055C80038590008150B000834590008150B000855
:1055D80030590008150B000800000000A538000825
:1055E80000000000A538000800000000A5380008E9
:1055F80000000000A538000800000000A5380008D9
:1056080000000000A538000800000000A5380008C8
:1056180000000000A538000874550008B3440008CD
:10562800745500089743000800000000A5380008DA
:1056380074550008BB4400082C590008150B0008D5
:1056480000000000A538000800000000A538000888
:1056580000000000A538000800000000A538000878
:1056680000000000A538000800000000A538000868
:1056780000000000A538000800000000A538000858
:1056880000000000A538000800000000A538000848
:1056980000000000A538000800000000A538000838
:1056A80000000000A538000800000000A538000828
:1056B80000000000A538000800000000A538000818
:1056C80028590008150B000800000000A53800083C
:1056D80000000000A538000800000000A5380008F8
:1056E80000000000A538000800000000A5380008E8
:1056F80000000000A538000800000000A5380008D8
:1057080000000000A538000800000000A5380008C7
:1057180000000000A538000800000000A5380008B7
:1057280000000000A538000800000000A5380008A7
:1057380000000000A538000800000000A538000897
:1057480000000000A538000800000000A538000887
:1057580000000000A538000800000000A538000877
:1057680000000000A538000800000000A538000867
:1057780000000000A538000800000000A538000857
:1057880000000000A538000800000000A538000847
:1057980000000000A538000800000000A538000837
:1057A80000000000A538000800000000A538000827
:1057B80000000000A538000800000000A538000817
:1057C80000000000A538000800000000A538000807
:1057D80000000000A538000800000000A5380008F7
:1057E80000000000A538000800000000A5380008E7
:1057F80000000000A538000800000000A5380008D7
:1058080000000000A538000800000000A5380008C6
:0858180000000000A5380008A3
:10582000A73E000835420008A3410008DF3F0008FA
:105830003510000867400008A90F0008910E000805
:10584000153E0008B93E00086D0E0008AF3E000886
:105850000100000001000100010004000000100030
:045860000800000438
:105864009D490008BD470008C9470008DB470008F8
:10587400E5470008EF47000849160008FD470008FF
:045884000000000020
:10588800294B0008494B0008674B0008874B000864
:10589800194500085D4500080000000031130008A4
:0C58A8000146000800000000AB450008AD
:1058B4008918000899180008934E00084917000831
:0458C4008D4D0008FE
:1058C8004F4E00004F4646004C45442073746174A7
:1058D800653A2025730A00003855000803000000C7
:1058E800000000200000000000000B06020000007D
:1058F8000C590008464C4153485F30005352414D03
:105908005F30000000000008FC5800082200020771
:1059180000000020045900081E000B11040000209C
:105928000A0600000505000004010000030100004C
:10593800020100000101000000010000696E7465A9
:1059480072727570742D636F6E74726F6C6C6572A1
:1059580040343030313034303000000063616E4004
:1059680034303030363430300000000000000000A1
:105978000000000040420F0048E80100000000005D
:10598800006400400064004058000000000000026D
:1059980097420008A0590008A85900080100000013
:1059A800B059000802000000690100000002000070
:1059B8008901000000000000726363403430303217
:1059C80031303030000000006770696F4034383083
:1059D80030316330300000006770696F4034383010
:1059E80030303830300000006770696F403438302C
:1059F80030303430300000006770696F4034383020
:105A08003030303030000000FFFF0000001C00483C
:105A1800070000004C00000080000000FFFF0000AD
:105A280000080048020000004C00000004000000CC
:105A3800FFFF000000040048010000004C000000C7
:105A480002000000FFFF0000000000480000000006
:105A58004C000000010000004C55000838550008B3
:105A680024550008000000000000000000000000AD
:105A780000000000105500080000000000000000B1
:105A8800000000000000000000000000000000000E
:105A9800000000000000000000000000726573654F
:105AA800742D636F6E74726F6C6C65720000000009
:105AB8000010024073657269616C403430303034D4
