:020000040800F2
:1000000000110020B9080008CD2C0008A508000840
:10001000A5080008A5080008A508000800000000C1
:10002000000000000000000000000000710900084E
:10003000A508000800000000110900086518000864
:10004000ED0A0008ED0A0008ED0A0008ED0A0008B4
:10005000ED0A0008ED0A0008ED0A0008ED0A0008A4
:10006000ED0A0008ED0A0008ED0A0008ED0A000894
:10007000ED0A0008ED0A0008ED0A0008ED0A000884
:10008000ED0A0008ED0A0008ED0A0008ED0A000874
:10009000ED0A0008ED0A0008ED0A0008ED0A000864
:1000A000ED0A0008ED0A0008ED0A0008ED0A000854
:1000B000ED0A0008ED0A0008ED0A0008ED0A000844
:1000C000ED0A0008ED0A0008ED0A0008ED0A000834
:1000D000ED0A0008ED0A0008ED0A0008ED0A000824
:1000E000ED0A0008ED0A0008ED0A0008ED0A000814
:1000F000ED0A0008ED0A0008ED0A0008ED0A000804
:10010000ED0A0008ED0A0008ED0A0008ED0A0008F3
:10011000ED0A0008ED0A0008ED0A0008ED0A0008E3
:10012000ED0A0008ED0A0008ED0A0008ED0A0008D3
:10013000ED0A0008ED0A0008ED0A0008ED0A0008C3
:10014000ED0A0008ED0A0008ED0A0008ED0A0008B3
:10015000ED0A0008ED0A0008ED0A0008ED0A0008A3
:10016000ED0A0008ED0A0008ED0A0008ED0A000893
:10017000ED0A0008ED0A0008ED0A0008ED0A000883
:0C018000ED0A0008ED0A0008ED0A000876
:10018C0053B94AB9002908BF00281CBF4FF0FF31F2
:10019C004FF0FF3000F00CB8ADF1080C6DE904CE57
:1001AC0000F008F8DDF804E0DDE9022304B0704744
:1001BC00704700BF2DE9F04786468C460846089EDE
:1001CC00154674461946002B40F0C2808542B2FA9F
:1001DC0082F245D94AB1C2F1200300FA02FC2EFA90
:1001EC0003F3954043EA0C0C94404FEA154EA8B229
:1001FC00BCFBFEF8230C0EFB18CC08FB00F943EA01
:10020C000C43994528D9EB1808F1FF3704D29945CE
:10021C0002D9A8F102072B44A3EB0903A4B2B3FB48
:10022C00FEFC0EFB1C330CFB00F044EA0344A04222
:10023C0014D92C190CF1FF3304D2A04202D9ACF121
:10024C0002032C44241A43EA07401EB1D440002375
:10025C0034607360BDE8F0874746DDE76346F1E73D
:10026C0092BB431B01214FEA154EAFB2B3FBFEFC10
:10027C00200C0EFB1C330CFB07F840EA034398459B
:10028C0062D9EB180CF1FF3004D2984502D9ACF1CD
:10029C0002002B44A3EB0803A4B2B3FBFEFC0EFB41
:1002AC001C330CFB07F744EA0344A7424ED92C1924
:1002BC000CF1FF3304D2A74202D9ACF102032C4457
:1002CC00E41B43EA0040C0E7C2F1200320FA03F12B
:1002DC00954090402EFA03F303434FEA154EAFB20C
:1002EC00B1FBFEFC0EFB1C10190C0CFB07F841EAD1
:1002FC000041884504FA02F422D969180CF1FF3048
:10030C0004D2884502D9ACF102002944A1EB0801C2
:10031C009BB2B1FBFEFC0EFB1C110CFB07F743EA76
:10032C0001439F420ED9EB180CF1FF3104D29F42CE
:10033C0002D9ACF102012B44DB1B41EA004192E7EC
:10034C006046E3E76146F7E76046A3E76346B7E735
:10035C00834206D916B9002108467BE7C6E900E0BE
:10036C00F9E7B3FA83F78FB9834201D3724508D802
:10037C00BEEB020460EB030301209C461EB9002176
:10038C0068E73846FAE7C6E9004CF8E7C7F1200CF5
:10039C00BB4022FA0CF41C432EFA0CF120FA0CF39D
:1003AC00B84001434FEA14490EFA07F5B3FBF9F8CC
:1003BC001FFA84FE09FB18300B0C08FB0EFA43EAFB
:1003CC0000439A4502FA07F240D9E31808F1FF30CE
:1003DC0004D29A4502D9A8F102002344A3EB0A03E4
:1003EC0089B2B3FBF9F809FB183308FB0EFE41EA9E
:1003FC0003418E452CD9611808F1FF3304D28E4588
:10040C0002D9A8F10203214443EA0040A0FB029860
:10041C00A1EB0E014145CE46434602D306D14D45D4
:10042C0004D2B9EB020E68EB04030138002EA6D0FF
:10043C00B5EB0E0261EB030101FA0CFC22FA07F397
:10044C004CEA0303F940C6E9003198E74046C5E79A
:10045C004346D9E7F8B5174D284602F08FFF0446FE
:10046C0030B32A69A968136823F0080313600B687A
:10047C004FF42022032128469847002818DB0E4F02
:10048C000E4EAB6808215B692846984700280FDBA5
:10049C0084F0010414F0FF0414BF394631460848B7
:1004AC0002F01CF9002142F2107002F0E7FFE8E7BD
:1004BC000020F8BD003700089A3B00089D3B00085F
:1004CC00A13B0008014B1B68184700BF000000202F
:1004DC00014B1860704700BF0000002030B585B09C
:1004EC0004460D4610220021684603F02CF8022326
:1004FC008DF802302A46044B01932146684602F0DF
:10050C00FFF805B030BD00BFD104000880B505462A
:10051C000E461746984601F089FE034603F07EF816
:10052C00DFF81890044649F8003042463046394608
:10053C00A84754F8090000F0CFF900BF08000000EC
:10054C00034A536823F0020353600020704700BF36
:10055C00002004E0084B1A6842F400721A601A6812
:10056C0042F480621A601A6842F480721A60034B7B
:10057C00034A1A60704700BF00200240240000208C
:10058C0000093D00014B036000207047383A000819
:10059C0030BFFFF7FDBF00BF2DE9F0410B4EDFF878
:1005AC00308006EB0807CC1B05463246094920462D
:1005BC0002F0BBFFA01942460021083C02F0C3FF29
:1005CC002C6707F10800BDE8F08100BF00000000B7
:1005DC0004000000383A0008054B5A699B689A429F
:1005EC001FBF044A536843F080535360704700BFE9
:1005FC00F802002000ED00E070B5264B15469A6A13
:10060C0012F0100F9A6A14BF1124102412F0080F64
:10061C009A6A18BF1224920706460AD5586B9A6A32
:10062C00140634D519B19A6A22F080029A62132406
:10063C0001E06FF01500174B9A6A12F0010F9A6ADD
:10064C0018BF142412F0200F9A6A18BF1524D20672
:10065C0002D49B6A9B070AD50E4B5B68190506D51D
:10066C00314600F0F7F910B180F309880224094BE8
:10067C009A6A920642BF5A6A22F400525A629A6AE5
:10068C0042F0FF029A6200232B70204670BD6FF07F
:10069C001500CCE700ED00E0134B9A6A12F0007FD6
:1006AC009A6A14BF1E201D2012F0807F9A6A18BF10
:1006BC001F2012F4002F9A6A18BF212012F4802FE9
:1006CC009A6A18BF222012F4003F9A6A18BF23209E
:1006DC0012F4803F9A6A6FEA02426FEA12429A62FF
:1006EC0018BF2420704700BF00ED00E010B5194B77
:1006FC000246986A9C6A10F4805F14BF172016207B
:10070C0014F4006F9C6A18BF1820A40509D5986BC7
:10071C00986A000404D51AB19A6A22F400429A62CB
:10072C0019200C4B9A6A12F4806F9A6A18BF1A201F
:10073C00D2050CD49B6A13F4005F18BF1C20054A29
:10074C00936A43F47F43936200230B7010BD1B200C
:10075C00F5E700BF00ED00E0F0B5484B5B688BB0EF
:10076C000446C3F30803002585F31188BFF36F8F8C
:10077C0002F07F40B0F17F4F11D102F00C0008283D
:10078C000DD010074CBF0C4601250022033B8DF801
:10079C000720032B05D8DFE803F0246367602C46A1
:1007AC00F3E700239DF80720CAB902AE04F1200735
:1007BC0020686168324603C20834BC421646F7D141
:1007CC00099A002D54D0C2F3080121B96FEA5222C4
:1007DC006FEA4222099202A9184602F067FA0BB09E
:1007EC00F0BD264BDA6A9107DBD4DA6A002AD8DB33
:1007FC00DA6A5200D5D55A69A16942F480725A61FD
:10080C00BFF34F8FBFF36F8F5A6931F8021C22F47C
:10081C0080725A61BFF34F8FBFF36F8F4DF6027228
:10082C0091420AD09A6AD2B24AB10DF10702012163
:10083C002046FFF7E1FE0346B4E72368B2E79A6A65
:10084C0012F47F4F05D00DF107010120FFF74EFF89
:10085C00F1E79B6AB3F5803FA3D3FFF71DFFEAE7EF
:10086C000DF107020021E3E70DF107010020EDE790
:10087C0022F4FF7222F00102ACE700BF00ED00E0B1
:10088C00044B5A6942F010025A615A6922F008026C
:10089C005A61704700ED00E0EFF30880EFF3098137
:1008AC0001B57246FFF758FF01BD00BF102080F361
:1008BC00118808484FF40461401880F30988EFF35D
:1008CC0014800221084380F31488BFF36F8F00F06B
:1008DC0081F8000040030020084B9B6883420BD139
:1008EC00EFF3058343B1064B5A6842F080525A60CD
:1008FC005A6A22F400425A6201F09EBCF8020020AF
:10090C0000ED00E014498A684FF030001044EFF31A
:10091C00098C80E8F01F102080F31288BFF36F8FD2
:10092C000E4F4FF000664A698A603E60106F0C4CA7
:10093C002060506F0023536780F3118804B5104674
:10094C0000F0ECF8BDE8044002F1300090E8F01F34
:10095C008CF3098870470000F802002004ED00E0D9
:10096C00000200201EF0040F0CBFEFF30880EFF321
:10097C000980816911F8021C0229FFD001B5724669
:10098C0002F09AF901BD00BF40B2002807DB044A0F
:10099C004109012300F01F00834042F821307047C9
:1009AC0000E100E040B20028A8BF00F1604001F176
:1009BC000101B8BF064B4FEA0111ACBF00F5614015
:1009CC0000F00F00C9B2B4BF195480F8001370477F
:1009DC0014ED00E00F4A08B50F4B22F07F029A602D
:1009EC00BFF34F8FBFF36F8FD3F8882022F47002C0
:1009FC00C3F88820EFF3148323F0040383F31488E3
:100A0C00BFF36F8F01F024F901F02CFD00F05CF8BE
:100A1C0001F062F90000000800ED00E042F8203C13
:100A2C00009B42F81C3C0A49019B42F8183C029B73
:100A3C0042F8143C21F001014FF0807342F8043C61
:100A4C0042F8081C0023203A02654367704700BF38
:100A5C0019050008094A0346906870B113F1160F86
:100A6C00006E05D0A0F140029A4205D8834203D211
:100A7C00814228BF0020704700207047F8020020F8
:100A8C0008B51546094A0A4B9060026F1A600E466B
:100A9C0000F044F82C4686F309880020054B984753
:100AAC002046002100220023034C2047F80200209E
:100ABC0000020020E32C000819050008014B10224D
:100ACC001A61704700ED00E0044800231021C218A1
:100ADC000133532B82F80013F9D1704700E100E089
:100AEC0008B5EFF30583064A103B02EBC30152F83D
:100AFC00330049688847BDE80840FFF76DBD00BF6B
:100B0C003C370008024B034A0348012100F076B839
:100B1C000000012000000020383A0008026E054B4E
:100B2C00403A1A60044A4021C3E9011218460121D7
:100B3C0000F06EB80402002000000B15084AC2F841
:100B4C0098000B6823F01F03034343F01003C2F813
:100B5C009C308B6843F00103C2F8A030704700BF93
:100B6C0000ED00E02DE9F043DFF8608085B00E4623
:100B7C001F4604464FF00009B14523DA6068D8B12E
:100B8C003FB1411E08421BD11F2819D923681942B5
:100B9C0016D12368019302F0B2F8A36803430393C0
:100BAC00D8F89050C5F30725D0B2013DA84207D81C
:100BBC0001A9FFF7C3FF421C09F101090C34DBE763
:100BCC006FF01502104605B0BDE8F08300ED00E0B3
:100BDC00044B0522C3F89420BFF34F8FBFF36F8FE4
:100BEC00704700BF00ED00E0BFF35F8F024B0022A7
:100BFC00C3F89420704700BF00ED00E010B5034C23
:100C0C0001232278FFF7AEFF207010BD28030020CF
:100C1C0008B50B4A00231278FFF7A4FF10F1160F4A
:100C2C0007D0084A0021D2F89030C3F3072398422A
:100C3C0000DB08BDC2F89800C2F8A0100130F2E742
:100C4C002803002000ED00E02DE9F043534B544CF9
:100C5C00D3F890302568C3F307239D4285B000F28A
:100C6C009A80FFF7C1FF00200C2685421AD14D4C0B
:100C7C004D4F25706846FFF785FCDFF82081DFF8C3
:100C8C002C9106460025AE4213D12378434900200F
:100C9C00D1F89020C2F30722934276DBFFF798FF3E
:100CAC00002042E0616806FB0011FFF747FF0130AE
:100CBC00DBE7009800EB05114FEA051CCB683B40C5
:100CCC00B3F5000F48D00AD8B3F5001F30D0B3F5F8
:100CDC00800F36D0B3F5801F10D00135D3E7B3F1B8
:100CEC00807F42D0B3F1007FF7D150F80C30886888
:100CFC004A6802F004F840F4802009E050F80C3007
:100D0C0088684A6801F0FBFF40F0885040F43020BE
:100D1C00CDE901230390D8F890302078C3F3072352
:100D2C00013B98422AD96FF0150005B0BDE8F0835D
:100D3C0050F80C3088684A6801F0E1FF40EA09007D
:100D4C00E6E750F80C3088684A6801F0D8FF40F0AC
:100D5C00E06040F40030DBE750F80C3088684A68FB
:100D6C0001F0CDFF40F08270D2E750F80C3088686B
:100D7C004A6801F0C4FF40F08870C9E701A9FFF789
:100D8C00DDFE237801332370A7E7C1F89830C1F852
:100D9C00A00001337CE74FF0FF30C6E700ED00E028
:100DAC00443A0008280300200000F0FF000008115E
:100DBC0008B5024B1B689847002008BD10020020A4
:100DCC00034B044A1860937843F002039370704706
:100DDC00100200200400002008B50649064821F046
:100DEC000701C1F1005202F5803201F012FF002020
:100DFC0008BD00BF47110020140200202DE9F0416E
:100E0C000F4E104F054600244FF001082A78131995
:100E1C00DBB208FA03F0736930EA030309D152FA22
:100E2C0084F3706157F833201AB107EBC303596888
:100E3C0090476A780134E3B29A42E7D2BDE8F08178
:100E4C000004014020020020044B1844002301330D
:100E5C00994200F8012BFADC704700BF30000020EB
:100E6C0007B5062201210020FFF7EEFF00221146F4
:100E7C000620FFF797FD012108460722FFF7E4FF44
:100E8C00002211460720FFF78DFD082201210220C8
:100E9C00FFF7DAFF002211460820FFF783FD092235
:100EAC0001210320FFF7D0FF002211460920FFF794
:100EBC0079FD0A2201210420FFF7C6FF002211460A
:100ECC000A20FFF76FFD052108461722FFF7BCFF2C
:100EDC00002211461720FFF765FD282206210A2063
:100EEC00FFF7B2FF002211462820FFF75BFD6022BE
:100EFC0005480123CDE90023836869461B689847A0
:100F0C0003B05DF804FB00BF9C360008034660B1DB
:100F1C00B0FA80F2C2F11F02D2B205498856054AD6
:100F2C0011680B431360FFF72FBDFF22F5E700BFDD
:100F3C003000002000040140024A136823EA000339
:100F4C001360704700040140032921D8DFE801F049
:100F5C00020C10190F4B9A6822EA00029A60DA68A8
:100F6C0022EA0002DA6070470A4B9A680243F5E7FE
:100F7C00084BDA680243DA609A6822EA00029A6047
:100F8C007047044B9A6802439A60DA681043D86041
:100F9C00704700BF0004014030B5B0B1B0FA80F327
:100FAC00C3F11F03DBB20B4850F833408C4204D121
:100FBC0000EBC3056D68954205D044B940F8331079
:100FCC0000EBC3004260002030BDFF23EBE76FF065
:100FDC000F00F9E72002002060B1B0FA80F3C3F1F2
:100FEC001F03DBB2044A002142F8331002EBC302A8
:100FFC0051607047FF23F5E72002002000F0030248
:10100C00043292000F23934043EA900000F0030354
:10101C000233064A52F82320030C02EA104093FADA
:10102C00A3F3B3FA83F3D840704700BF000001402C
:10103C00024B1868C0F38020704700BF00100240BC
:10104C0038B508882D4B1446C0F30B02072A1B68D1
:10105C000D4602D00A2A20D812B96FF085002CE078
:10106C00501E0928F9D801A252F820F0BB10000834
:10107C00F5100008A1100008F11000086710000816
:10108C00F510000867100008C9100008D9100008F6
:10109C00E51000084FF4FA4309E002F6B870C0F30B
:1010AC000B001828D9D8164AC240D207D5D52360D0
:1010BC002A68B2F5805F19D2002038BD00F0BEF866
:1010CC00142343430722B3FBF2F3F0E700F0B6F826
:1010DC00142343435B08EAE700F0B0F814234343BE
:1010EC009B08E4E7074BE2E70023E0E7C2F3133287
:1010FC000132B3FBF2F32360DEE700BF24000020D3
:10110C00110111010024F400F8B5484F484C00F0CF
:10111C00ABF8384601F0B3FE00F068FCA368454A12
:10112C00C3F303131578D35C47FA05F520FA03F6DD
:10113C00AE4202D2284600F0A7FCFFF779FF012847
:10114C0007D0236843F480732360FFF771FF0128F5
:10115C00FBD1D4F8943043F00103C4F89430D4F8A4
:10116C0094309907FBD5A36803F00C030C2B1AD110
:10117C00FFF75EFF012807D0236843F480732360D8
:10118C00FFF756FF0128FBD1A36823F0030343F0BC
:10119C000103A360A36803F00C03042BFAD1A3682A
:1011AC0023F0F003A360236823F08073236023688B
:1011BC009A01FCD4E36823F0605323F4003343F02A
:1011CC006053E360E36843F48033E360E36823F443
:1011DC00C003E360E36843F48013E36000F032F88B
:1011EC00236843F08073236023689B01FCD5A368BC
:1011FC0023F0F003A360A36843F00303A360A36888
:10120C0003F00C030C2BFAD1AE4202D3284600F0AB
:10121C003BFC094B1F60A36823F4E063A360A36845
:10122C0023F46053A3600020F8BD00BF00B4C404D5
:10123C0000100240513C0008240000200048704778
:10124C000024F400054B0649DA681140054A0A43AC
:10125C00DA60DA6842F08072DA607047001002409F
:10126C008C80FFF902140002064B9A6D42F08052FA
:10127C009A659B6D82B003F080530193019B02B081
:10128C00704700BF0010024008B5074802F076F81E
:10129C0038B10648FFF794FD0448FFF719F9002010
:1012AC0008BD6FF01200FBE728370008BD120008DC
:1012BC000A2838B5074D044604D1AB680D215B688C
:1012CC0028469847AB6803485B68E1B298472046CC
:1012DC0038BD00BF283700082DE9F843D0F804804A
:1012EC00D0F81090D8F8080017460D461E4601F0AD
:1012FC001BFDB7F5001F044616D12846D8F8084048
:10130C00FFF77CFE84420CD1294601F00DFD04460A
:10131C00FFF712FE2046FFF75FFE00212046FFF785
:10132C0013FE0020BDE8F883B7F5800F20D0B6F18E
:10133C00806F19D0B6F1C06F18D0B6F1007F1AD1FA
:10134C00022610494A462046FFF726FEB0B9D8F8C7
:10135C000810284601F0EBFC20463146FFF7F4FD5F
:10136C002046FFF7D3FDDCE70126EAE70326E8E792
:10137C006FF08500D6E76FF01500D3E76FF00F0024
:10138C00D0E700BFF930000838B50369044658604F
:10139C00084D284601F0F2FF40B16168AB680C3192
:1013AC001B682846984700EAE07038BD6FF01200C1
:1013BC00FBE700BF9C3600082DE9F0471E4F0446A2
:1013CC0000EBC1060025B44201D1002014E02068D6
:1013DC00C30600F01F0911D4656845F02005C0F361
:1013EC00481AC0F34420102823D857F82080B8F1AD
:1013FC00000F0DD16FF01200BDE8F087B9F1100F9E
:10140C0004D0B9F1110FEAD16568E8E73025E6E7B9
:10141C00404601F0B3FF0028ECD04B462A460AF0B8
:10142C000F01404601F078FE002804F10804CADAE6
:10143C00E2E76FF01500DFE7B83A0008F8B503698A
:10144C000C465D6823794168012B16D09F1E7E42A5
:10145C007E41B6026279022A9CBF454F37F8127062
:10146C00A27988BF4FF40057022A09D0042A2FD042
:10147C00003B18BF01231B0306E04FF4C066E9E7ED
:10148C00B3FA83F35B091B07E2790968012A14BFDD
:10149C004FF0000C4FF4407CA5421CD10A6822F09E
:1014AC00805222F4B05232431A430A604B6823F440
:1014BC0040533B434B6043681A68936823F4407372
:1014CC0043EA0C0393602968BDE8F84001F084BE40
:1014DC004FF48053D8E7D1F800E00EF4C06E764597
:1014EC001FBFD1F800E02EF4C06E4EEA06060E6067
:1014FC0041680E68716801F440518F421FBF7168DA
:10150C0021F440513943716041680E68316801F033
:10151C0010218B421FBF316821F010210B43336027
:10152C00436819688B6803F440739C451FBF8B6834
:10153C0023F4407343EA0C038B6043681B6899687F
:10154C00490405D5032A09D09A6822F4804204E0A4
:10155C00032A03D19A6842F480429A6021682B686E
:10156C00994203D001F038FE23682B60F8BD00BF10
:10157C00943B0008F7B50569446806464648286060
:10158C0001F0FCFE00287FD02868E16883681B68A6
:10159C00984700287ADB206A01AA002101F0D1FDCE
:1015AC00002873DB019B002219791868FFF704FFF0
:1015BC0000286BDB756833692C685F68236823F03F
:1015CC0001032360686801F0D9FE00285CD0D5E9DE
:1015DC0001018368DB6803B1984754E8003F43F08E
:1015EC000C0344E80032002AF7D139463046FFF7A5
:1015FC0025FF2B7D1BB1A36843F00803A3606B7D13
:10160C001BB1636843F400436360AB7D1BB163683B
:10161C0043F480336360EB7D1BB1636843F40033A8
:10162C0063602B7E23B31D4B9C4207D0A3F5744300
:10163C009C4203D003F570539C4229D173681A68FD
:10164C00936843F48043936023686A7E23F0787335
:10165C0043EA425323602368AA7E23F4F81343EA37
:10166C0002432360EB7E1BB1A36843F40043A360E9
:10167C00236843F001032360E3699A02FCD5E36914
:10168C005B02FCD5002001E06FF0120003B0F0BD4E
:10169C006FF01500FAE700BF9C36000800380140D7
:1016AC00F8B5436891F805E01C68036902460879AF
:1016BC005D688B7901280E461CD1BEF1020F5CD9F6
:1016CC00022B1F464FF4C0614FF4005C6DD0042B0D
:1016DC0066D020B1C31E012B64D94FF48050BCF5E9
:1016EC00805F6CD0BCF5405F6BD0BCF1000F1CD19F
:1016FC0001231BE002280AD1BEF1020F49D9022BAB
:10170C001F464FF480610BD04FF4005CDFE7BEF155
:10171C00020F41D9022B1F4640D100284BD000218B
:10172C00C31E012B3ED9002002270323734539D158
:10173C0001F06DFDB84235D1F37963B1012B42D183
:10174C00224B9C4207D0A3F574439C4203D003F573
:10175C0070539C4226D1236823F001032360314649
:10176C001046FFF76BFE236843F00103236096E8F5
:10177C00030085E803000020F8BD4FF4C061144F4E
:10178C00022B37F81EC01F46A1D170B94FF0805004
:10179C00A5E74FF48061F2E70021F0E70021B3E701
:1017AC0000289AD06FF08500E6E7C31E012BF9D90B
:1017BC000227002093E701464FF08050B5E7002345
:1017CC00B4E70223B2E7032BBAD0EBE700380140B1
:1017DC00943B000810B54FF0E0230F499C691A693F
:1017EC0008689B690D4902F4803234B993B90346F9
:1017FC004AB90A681044C01A10BD002B08BF034632
:10180C000AB9A342F5D90A6802440A604FF0E022F3
:10181C001269EEE70446F3E7F4020020F002002020
:10182C000A4B102283F82320094B4FF4FA521A600A
:10183C00084B002018604FF0E02341F63F725A61CC
:10184C0098611A6942F007021A61704700ED00E0D6
:10185C00F4020020F0020020684620F007018D46BB
:10186C0019B5FFF7B7FF114B1149D3E900420868CE
:10187C00001942F10002C3E900020E4A00230B607A
:10188C00D2E900414FF4FA53001BB0FBF3F0434391
:10189C001B1941F10001C2E9003100F0A3FEFEF773
:1018AC009BFEBDE819408546704700BF58000020DC
:1018BC00F0020020500000202DE9F041DFF8DC8020
:1018CC0099B1421C0BD14FF0E022136923F00103B4
:1018DC0013614FF07F43C8F80030BDE8F081D8F8B1
:1018EC000060012807DC00270BE0431CD8F80060DF
:1018FC00F7D14FF4036040F631039842A8BF184665
:10190C00471EEFF31185102383F31288BFF36F8FFB
:10191C00FFF760FF224C4FF0E0239969D4E90023D4
:10192C00801843F10003C4E900031E4B00221A6027
:10193C001D4B1A68831A2ED44FF4FA5C0CFB073338
:10194C0003F5F9531F33B3FBFCF7131A0CFB0733E6
:10195C00B3F5806F154A38BF4FF48063934228BFAC
:10196C0013464FF0E022C8F80030013B90695361F8
:10197C00002393618142A1EB0003D4E9001238BF2C
:10198C009B195B1842F10002C4E9003285F31188FF
:10199C00BFF36F8FA1E74FF48063E2E7F4020020FE
:1019AC0058000020F00200205000002000DCFF0056
:1019BC0038B5EFF31185102383F31288BFF36F8FC3
:1019CC00084B1C68084B1B68E41AFFF703FF85F3F0
:1019DC001188BFF36F8F4FF4FA532044B0FBF3F030
:1019EC0038BD00BF5800002050000020224B9A68E0
:1019FC00D96812F00C0205D00C2A15D101F00301A4
:101A0C00012918D119681D48090755BFD3F894103E
:101A1C001968C1F30321C1F3031150F8210012B16D
:101A2C000C2A09D000207047042A22D0082A144816
:101A3C0018BF002070470020DA6802F00302022A67
:101A4C0015D00F49032A08BF0846D968DA68C2F3D3
:101A5C0006224243D868C0F34160C1F30211013041
:101A6C0001314000B2FBF1F2B2FBF0F070470548D7
:101A7C00EBE70448704700BF001002404C3B0008E5
:101A8C0000127A000024F4001F4B421E9A4201D926
:101A9C00012070471D4B1B6803F4C063B3F5007F36
:101AAC000FD11B4B98421AD81A4B984227D81A4B75
:101ABC00984226D8194B984294BF0023012300204A
:101ACC0011E0174B98420CD8A3F5F403A3F59053EF
:101ADC00984214D8134B984213D8134BEBE70423BA
:101AEC00EDE70023012011490A6822F007021A438E
:101AFC000A600A6802F007029342C9D170470323B7
:101B0C00DDE70223DBE700BFFFB3C4040070004035
:101B1C000090D003006CDC020048E8010024F400C3
:101B2C0080BA8C01001BB700808D5B000020024046
:101B3C0038B5EFF31185102383F31288BFF36F8F41
:101B4C00064B9C6801F02DFC85F31188BFF36F8F59
:101B5C002046BDE83840FEF7BFBE00BFF8020020AB
:101B6C0038B5094B53F82040013053F82050A542AA
:101B7C0000D838BD636823B1204601F015FC083449
:101B8C00F5E723689847FAE77C3B000870B52B4BC8
:101B9C002B4C2C4D012286B003201A70FFF7E0FF6E
:101BAC0000F096FD01F01CFC0420FFF7D9FF26463F
:101BBC00AE4204F1300410D300F040FA204C224E17
:101BCC00AC4226D300F04EFAFEF744FC1F4A137BBE
:101BDC0023F00103137306B070BD54F80C3C05934D
:101BEC0054F8103C049354F8143C039354F8183CE8
:101BFC00029354F81C3C019354F8203C009354E994
:101C0C000A2354E90C0100F0CFF854F8303C5E651F
:101C1C00CDE7D4E90A23B3F1FF3F08BFB2F1FF3F90
:101C2C0005D052EA0301206803D100F0DBFA30340E
:101C3C00C6E73146183000F05FFCF8E729030020B6
:101C4C00D4390008D439000881340008E0000020A1
:101C5C0008B50348034A0021121A01F0BDFB08BD68
:101C6C00500000202C03002070B5002386B0012208
:101C7C00CDE90423134E144D01930F22CDE902320A
:101C8C001249142303FB005506EBC01604464FF40F
:101C9C00C07000FB04110E4B00954FF4A07230463F
:101CAC0000F082F8737B0B4AEE6023F0040373732D
:101CBC004FF4046304FB033313442C746B6006B0C1
:101CCC0070BD00BF60000020F8020020800B0020D7
:101CDC00EF33000840030020BFB50020FFF740FFA2
:101CEC00294B83F30888294C294F636943F400730B
:101CFC0063610025F02384F82230E577257665763C
:101D0C00A57684F82050636A43F4E0236362FEF7FF
:101D1C00B7FDFEF7D3FE4FF0FF33A362E362FEF78D
:101D2C0093FFFEF7EFFE1B481B4C00F089F801F007
:101D3C0024FBFEF70FFC0120FFF712FF0220FFF738
:101D4C000FFF00F0C3F9154B15495C61154B05935A
:101D5C000123CDE903534FF480623B46CDE9015595
:101D6C000095204600F020F8627B064622F0040223
:101D7C002046627301F052FB2846FFF775FF3A4686
:101D8C0031462046FEF77CFE800B002000ED00E083
:101D9C00991B000860010020E0000020F8020020E0
:101DAC00000D0020613C00082DE9F043073285B09E
:101DBC0022F007020E461F461099017300F15803DA
:101DCC007F32C0E916330446002322F03F0204217F
:101DDC00836041733F2A0F98A073C4E90633E37301
:101DEC0006F14009A2F1400805D883F31188BFF32E
:101DFC006F8F084602DFB51829462046FEF7CCFB4C
:101E0C0007300E9B20F00700A066C4E918980293D7
:101E1C000D9B01932D1A0C9B00932A463B46314691
:101E2C002046FEF7FBFD00236365044B9B6803B162
:101E3C00DB6EE366284605B0BDE8F083F8020020AF
:101E4C0040F2011383810023C0E91833C366014BB0
:101E5C0098607047F8020020094A93686FF00A01F5
:101E6C009967084958674B6843F080534B600023CF
:101E7C0083F31188BFF36F8F9368986F704700BF1F
:101E8C00F802002000ED00E070B590F90D20437BC6
:101E9C00002A36DBD90634D11B4C63F07F03224673
:101EAC00437352F8183FE169934207D1C0E900210E
:101EBC000860E06111E09942F8D01B68002BF5D066
:101ECC0090F90E5093F90E60B542F4D0AE42F2DDAB
:101EDC005968C0E9003108605860A569954200D086
:101EEC0005B9E568A3685A7BD20604D1DA897F2A42
:101EFC0001D9AA6932B1AB4202D0284600F05AFA95
:101F0C00656170BD6361FCE7F802002038B590F99B
:101F1C000D20437B002A014604DA03F07F03437350
:101F2C0001F06AFA0D4D2A46AB6852F8184F9442EC
:101F3C0000D004B9EC688B4207D05A7BD20604D18E
:101F4C00DA897F2A01D9A2692AB1A34202D020469C
:101F5C0000F030FA23466B6138BD00BFF802002058
:101F6C0070B590F90D20437B002A014604DA03F08A
:101F7C007F03437301F040FA4B7B1C4C63F07F03EF
:101F8C0022464B7352F8183FE069934207D1C1E9DE
:101F9C0000200160E16111E09842F8D01B68002B31
:101FAC00F5D091F90E5093F90E60B542F4D0AE42D3
:101FBC00F2DD5868C1E9003001605960A569A36879
:101FCC00954200D005B9E5688B4207D05A7BD20602
:101FDC0004D1DA897F2A01D9AA692AB1AB4202D08D
:101FEC00284600F0E7F92B46636170BDF80200202B
:101FFC0049B9EFF3058030B9054B5A699B689A4291
:10200C0001D0FFF729BF81F31188BFF36F8F7047A1
:10201C00F8020020034648B9EFF3058232B9064AAC
:10202C0051699268914201D0FFF716BF83F3118872
:10203C00BFF36F8F704700BFF8020020EFF31181E0
:10204C00102383F31288BFF36F8F054B9A68D37BF1
:10205C00013BD37381F31188BFF36F8F704700BFBF
:10206C00F802002070B5EFF31186102383F3128869
:10207C00BFF36F8F144DAB68DA7B0132DA732A46EB
:10208C0052F8184F944200D004B9EC685A7BD2062F
:10209C0004D1DA897F2A01D9A2692AB1A34202D0DC
:1020AC00204600F087F923466B6186F31188BFF355
:1020BC006F8FEFF31180102383F31288BFF36F8FB0
:1020CC00BDE87040FFF7A6BFF8020020024B03F1F9
:1020DC001802C3E906227047F802002070B5EFF32E
:1020EC001186102383F31288BFF36F8F1B4CA168EA
:1020FC00E0690B68814214BF1A46002249680B60E4
:10210C005960A368E1692AB9154AC3E900210B603B
:10211C00E3610CE093F90E0092F90E50A84218D02E
:10212C00854216DD5168C3E900210B605360A56937
:10213C000B4B9D4200D005B9E568A3689D4202D0C7
:10214C00284600F037F965613046BDE87040FFF76E
:10215C0083BE8A42D8D01268D5E700BFF8020020AF
:10216C001003002050EA01032DE9F04105460E460C
:10217C0004D1FFF7B3FF0020BDE8F081831C71F19F
:10218C00FF3324DB01F0CDF94419EFF31188102350
:10219C0083F31288BFF36F8F0F4F104BB868186022
:1021AC00FFF7B4FEB8680E492A463346183000F0E3
:1021BC00A3F9BA68537B43F0040353734046FFF70B
:1021CC004BFE01F0AEF9201A20EAE070D4E76FF074
:1021DC000104241AD9E700BFF802002018030020DC
:1021EC008134000838B50446EFF31185102383F3CE
:1021FC001288BFF36F8F437B5B070FD5183001F04C
:10220C006FF9637B23F0040320466373FFF73CFEF6
:10221C0029460548BDE83840FFF7EABE85F311882A
:10222C00BFF36F8F38BD00BF2A030020014B9868A5
:10223C00704700BFF80200202DE9F8430446077BE5
:10224C00EFF31186102383F31288BFF36F8F437B58
:10225C00190705D586F31188BFF36F8FBDE8F88396
:10226C00D90943F0080261D14273A36813B1204627
:10227C0001F0CAF804F1180001F032F9A56D04F16F
:10228C005808A84511D04FF0000975B1284601F047
:10229C00BBF805F1180001F023F9C5F87890284631
:1022AC00FFF7F2FDA56DA845EFD1DFF8A080D8F8B7
:1022BC0008309C4242D1EFF30589B9F1000918BFEF
:1022CC004FF00109D8F81850214A954200D00DB9A9
:1022DC00D8F80C50AB4202D0284600F06BF8C8F886
:1022EC001450B9F1000F02D01A48FFF7A9FDD8F825
:1022FC0008309C4225D1EFF3058313BB227BD20718
:10230C0006D583F31188BFF36F8F0423184602DFC1
:10231C003046FFF7A1FDFB07A0D5002383F31188FE
:10232C00BFF36F8F0423184602DF97E703F07F0398
:10233C0043F00803437301F05FF896E74FF0000990
:10234C00C0E786F31188BFF36F8FE4E7F802002033
:10235C001003002060010020044BC01A044BC01075
:10236C005843044B01221A54704700BFE00100206F
:10237C00ABAAAAAA2A030020C3897F2B12D80A4B26
:10238C001B6863B1094B90F90E201B689A4209DB5C
:10239C00437BDB0606D1064BC31A18BF012303F09F
:1023AC00010070470023FAE7200300201C030020E3
:1023BC006000002070B50E4B0E4C1E7C06EB4603E5
:1023CC0004EBC3040546204601F08AF80A4B0022B0
:1023DC0028469A55FFF7D0FF48B1084B08491A68B0
:1023EC00013A2046D317BDE8704000F085B870BDA7
:1023FC00F8020020E00100202A0300202003002026
:10240C006523000838B5EFF31185102383F3128888
:10241C00BFF36F8F104B114A9C681068A04206D115
:10242C00FFF7C8FF85F31188BFF36F8F38BD00210C
:10243C001B7C11600A4AD35C002BF3D02046FFF7BB
:10244C009BFF0028EED0637BDB0602D12046FFF712
:10245C0087FD2046E4E700BFF802002018030020A7
:10246C002A0300200748084A084908B5121A00F048
:10247C00B5FF0748074A0849BDE80840121A00F0A2
:10248C00ADBF00BF0000002050000020B43C00088D
:10249C000000002000000020B43C0008024B18682B
:1024AC00984208BF0020704728000020034B1B688F
:1024BC000BB9FFF77DBA0020704700BF2403002042
:1024CC0030B570B10B4B5B6898420AD0036843B1CE
:1024DC00D3E90421D0E90445121941EB0501C3E904
:1024EC000421D0E9003213605A600023C0E90033A4
:1024FC0030BD00BF28000020B3F1FF3F08BFB2F190
:10250C00FF3FF8B504461D4616465AD08160EFF3DE
:10251C001187102383F31288BFF36F8F013275F18B
:10252C00FF3321DA2C49D1E900206FF001039B1A0B
:10253C004FF0FF3262EB00009E1B60EB0500012E9A
:10254C0070F1000301DA01260020C4E90460FFF7F2
:10255C00A5FF224E84467068BCF1000F0DD1C4E972
:10256C000060046074601CE0FFF7A0FF013645F1C9
:10257C000005361845EBE070E7E7DCE90425D4E903
:10258C000431934271EB050E1CDAD21ADCF80430DC
:10259C0065EB0105CCE90425C4E900C31C60CCF84B
:1025AC000440FFF77BFF844207D10D4B1C6824B914
:1025BC0000F07DFF2146FFF77FF987F31188BFF309
:1025CC006F8FF8BD9B1A61EB05018445C4E904319A
:1025DC00C5D0DCF800C0BFE7F801002028000020BF
:1025EC00240300202DE9F047EFF31185102383F32A
:1025FC001288BFF36F8FDFF8A090DFF8A080C9F8C6
:10260C000000FFF74BFF00260027D9F80030D8E96F
:10261C0000ECD91750B1D0E90442A34271EB020A85
:10262C001ADAE41A62EB0102C0E9044213EB0E035E
:10263C004CEB01010024C8E90031C9F8004000F05E
:10264C0036FF2146FFF738F985F31188BFF36F8FFA
:10265C00BDE8F047FFF7D6BE14EB0E024CEBE4736B
:10266C00C0E90467C8E90023FFF72AFF85F3118846
:10267C00BFF36F8F83689847EFF31185102383F3B3
:10268C001288BFF36F8FD9F800301B1BC9F80030CC
:10269C00FFF704FFB9E700BF24030020F801002076
:1026AC0010B5EFF31184102383F31288BFF36F8FEF
:1026BC00FFF7FCFE054A0346D2E90001181841EB6E
:1026CC00E37184F31188BFF36F8F10BDF801002004
:1026DC00014800F0DDBA00BF663C00080FB407B536
:1026EC00064B04AA186852F8041B019200F008F873
:1026FC0003B05DF804EB04B0704700BF643A000807
:10270C002DE9F04F8DB043680293837815469A07F4
:10271C00804640F10D8100240E78002E00F00A81D5
:10272C00252E0BD04B1C03930134029B41463046A3
:10273C0098470028C0F2F6800399EDE74E788B1C81
:10274C00252E0393F0D00027B946BB46BBF11F0FD3
:10275C0038D8A6F12003102B0AD8DFE803F02A0999
:10276C0009300909092109090928092D09091F003E
:10277C00A6F13003092B33D92A2E37D11BF0400F89
:10278C0055F8043B40F08280002BA7BF4BF0200B88
:10279C009946C3F100094BF0280B01E04BF0010BFB
:1027AC00039B13F8016B0393002ECFD130E04BF059
:1027BC00020B4BF0040BF3E74BF0080BF0E74BF07C
:1027CC00100BEDE7BBF17F0F19D8A6F13003092BE5
:1027DC00D2D81BF0400F03D00A2101FB0737DFE7EB
:1027EC000A2101FB09394BF0200BD9E72E2E06D11B
:1027FC001BF0400F40F09E804BF0400BD0E76C2E4E
:10280C0031D02BD8682E36D06A2E3CD04C2E3AD0F4
:10281C00002F46F02003B8BF2BF04002A3F1650156
:10282C00BCBF1FFA82FB0027022901D9612B2FD1D3
:10283C00073525F00705DFF8ACA2083507271BF094
:10284C00080F66D00AEB070B56465E4563D1A4EB26
:10285C000A0A06EB0A02A9EB07096FE1742E9FD056
:10286C007A2E9DD0D4E71BF0800F18BF4BF4007B61
:10287C004BF0800B94E71BF4807F18BF4BF4007B6C
:10288C004BF4807B8CE74BF4207B89E71F4687E772
:10289C00A6F16301122900F2F080DFE811F01300B9
:1028AC004F00EE00EE00EE00EE004F00EE00EE00EA
:1028BC00EE00EE00EE00FE00E900EE00EE001B0064
:1028CC00EE00AF0055F8043B8DF8183001270DF1E0
:1028DC00180AB4E755F804AB834BBAF1000F08BFE4
:1028EC009A461BF0400F14BF39464FF0FF3150464B
:1028FC0000F031FE0746A2E7029B41462020984794
:10290C0000280FDB013EB742F6D34C44A41BB14662
:10291C0098E74E46F7E716F8010B029B414698479D
:10292C00002892DA98F8023043F0040388F8023059
:10293C004FF0FF3420460DB0BDE8F08F1BF0800F38
:10294C0034D01BF4007F2CD0073525F00705AA46A0
:10295C0069685AF8080B2BF010050029ADB237DA6C
:10296C00404261EB410145F480650DF1180B0A23DF
:10297C005A4600F0FCFDA0EB0B0301936B0662D5ED
:10298C00019B25F001019F4289B240F3A180002EEA
:10299C0000F0998015F0100240F09C80BB460D466B
:1029AC0023E0AA465AF8040BC117D4E7AA461BF435
:1029BC00807F5AF8041B01D10846F5E71BF4007F11
:1029CC0015BF48B208B241F3C01141F3C031C2E7A0
:1029DC0050EA0103C9D11BF0400FC6D0002FC4D15F
:1029EC002BF0110295B2BB46019740F2064115EA55
:1029FC0001021CBF0BF1010B00222CE02BF010028A
:102A0C001FFA82FB0A231BF0800C49D01BF40071C7
:102A1C001DBF073525F00705AA46AA461ABF5AF866
:102A2C00080B69685AF8040B50EA010545D12BF0E4
:102A3C0016051BF0400FADB242D0002F40D12BF049
:102A4C00170295B2019715F0100248D0019B002E89
:102A5C0042D103F1010B29075AD4EB0706D5D9450E
:102A6C006FDD0199A9EB0B035F18CB465B4649E080
:102A7C004BF0100B10237826C5E7782B04D1C6F148
:102A8C00780343F01003BEE7029B4146252098478C
:102A9C000028FFF647AF023447E608230026B2E7CA
:102AAC00AA461BF480715AF8040BBDD01BF40071BC
:102ABC001ABFC0B2614680B2B6E72BF0060295B2DF
:102ACC000DF1180B54E725F01105ADB2BB468CE7A0
:102ADC000D46B8E73B460D4603F1020BBBE7DDF8AC
:102AEC0004B082E7AB3C0008A43C0008CDE90432FA
:102AFC004146029B202098470028FFF613AF049B09
:102B0C00059A01339945F1DCA4EB0B01CC189B46DB
:102B1C000AB3029B4146302098470028FFF602AFCB
:102B2C008EB901342744019B391B994224DC1D4684
:102B3C005DBB019AA9EB0B092244554614469144FE
:102B4C0035E0019F92E7023441463046029B98479C
:102B5C000028E7DAE6E640F206410D42E2D015F035
:102B6C00020F14BF2B20202015F4806F04F10104F8
:102B7C00414618BF2D20E9E7029B4146302098477B
:102B8C00002804F10104CEDACCE606AB013D414647
:102B9C00585D029B98470028CADAC3E6029B41465F
:102BAC0020209847002804F10104FFF6BBAEA9EBE6
:102BBC000403002BF2DCBFE5704700EBC10040883A
:102BCC0040087047F8B50346FFF7F7FFB0FA80F0FE
:102BDC00C0F11F0003EB800CCA00DCF81060171D5D
:102BEC000C4606328DB256B9012101FA00F0D968B3
:102BFC000143D960CCF81040DD539D52F8BDF10073
:102C0C000431585AD85303EBC0009E52C5805D5214
:102C1C00F4E7043A2DE9F041CC1D114424F00704EB
:102C2C0021F007010E1BF708B7FA87F2C2F1240551
:102C3C00AD004FF000080735C2F12002ED0804602A
:102C4C004146A760C4F80C80920004F1100000F01B
:102C5C007AFC6B0043F00103638004EBC5027B1B21
:102C6C005900A4F800805180A21924F83550A2F81C
:102C7C000280A35304EBC70329465A8842F0010291
:102C8C005A802046BDE8F041FFF79CBF00207047FA
:102C9C000FB407B504A951F8040B0191FDF71EFC04
:102CAC0003B05DF804EB04B070477047012801D104
:102CBC00EFF30583FEF73CBF01460068FFF7F6BF54
:102CCC0008B5FDF765FCBDE80840FDF785BC0021A3
:102CDC000120FFF7EBBF61B662B680F31188BFF33A
:102CEC006F8F704772B6002383F31188BFF36F8F19
:102CFC00BFF34F8F30BF62B6BFF36F8F7047202882
:102D0C0009D9B0F1004F08D80138B0FA80F0C0F101
:102D1C001F0040007047082070473E20704708B5E0
:102D2C00FEF746F8002008BD01208840704700F0EF
:102D3C000302043292000F23934043EA900010B533
:102D4C0000F003039B0003F1804303F58033020C76
:102D5C009C6892FAA2F2B2FA82F224EA10409140F4
:102D6C000143996010BD0B88C3F30B0303F6B872D3
:102D7C00C2F30B02182A82B014D803F1804303F576
:102D8C00043348681A6802431A600B88C3F30B03B8
:102D9C0003F1804303F5043300201B680193019B6E
:102DAC0002B070476FF08500FAE70B88C3F30B0392
:102DBC0003F6B872C2F30B02182A9FBF03F18043CB
:102DCC0003F5043349681A689DBF8A4300201A60D2
:102DDC006FF0850070470A2809D840F29A73C340F7
:102DEC0013F0010F14BF00206FF0850070476FF0D7
:102DFC008500704710B50888C0F30B00FFF7EBFF98
:102E0C0000281FDB4A68FF2A1BD093B203F18043D2
:102E1C0003F50433C2F384541868C2F3054204FA70
:102E2C0002F220EA02021A6049688BB203F1804375
:102E3C0003F50433CA0E1868C1F305418A400243F6
:102E4C001A60002010BD0888C0F30B0008B500F60E
:102E5C00B873C3F30B03182B0AD800F1804000F5AC
:102E6C0004304B680268934314BF0120022008BD54
:102E7C00FFF7B1FF002814BF01200220F7E77047CD
:102E8C0043685B681B690B600020704743685B6894
:102E9C00586942400A4042405A61002070474368DA
:102EAC005B6800209961704743685B6800209962F9
:102EBC00704743685A6853694B4053610020704710
:102ECC0010B503699868F8B1884219D1DC680868B4
:102EDC009860A14200D1D860002008602AB19A689D
:102EEC000A60DA68996002B9D960002010E081426A
:102EFC0006D108682060D8688142EDD1DC60EBE730
:102F0C00044600680028F2D1002AE8D16FF01500C1
:102F1C0010BDF0B544680120676888401E46C2F3B6
:102F2C00801327EA00078B403B43636090FAA0F7BD
:102F3C00B7FA87F7D4F808C04FF0030E7F000EFAEB
:102F4C0007F72CEA070C90FAA0F7B7FA87F7C2F349
:102F5C00C1137F00BB4043EA0C03A36090FAA0F3BB
:102F6C00B3FA83F3E7685B000EFA03F327EA03076F
:102F7C0090FAA0F3B3FA83F302F030055B00C2F3CE
:102F8C0041229A403A43202DE26016D107292BD8D2
:102F9C0090FAA0F3226A2BB3B3FA83F39B000F21B0
:102FAC0001FA03F322EA030290FAA0F3B3FA83F3D3
:102FBC009B0006FA03F31343236290FAA0F3B3FACF
:102FCC0083F3226890FAA0F05B000321B0FA80F042
:102FDC002D0901FA03F3400022EA030385401D4347
:102FEC002560F0BD2B46D9E7030A616A93FAA3F278
:102FFC0082B1B2FA82F292000F2793FAA3F3B3FADA
:10300C0083F307FA02F29B0021EA02029E40164368
:10301C006662D2E72A46EEE712F4003CF8B50C469D
:10302C0013461DD0960714D555075CD55022D906EA
:10303C0011D542F4007203F4C061B1F5806F42D037
:10304C00B1F5C06F19D0B1F5007F18D142F08002F4
:10305C0015E01022EBE79F06EDD542F48062EAE71B
:10306C00D60305D5D50605D4C2F340129202E2E789
:10307C003022E0E74FF40072DDE742F4C07213F443
:10308C004036056908D02F6927FA04F1C9075FBFDC
:10309C000121A14039432961BCF1000F06D01F0367
:1030AC00416813D549680123A3408B614068002314
:1030BC002146FFF72EFF26B92B6923FA04F2D2071B
:1030CC000BD40020F8BD42F48072D8E75F0341BFF7
:1030DC0001234968A3408B62E8E70122A24023EA5E
:1030EC0002032B61EDE76FF08500EBE770B50B4643
:1030FC008968054611B15E680C6801B970BD8A68B3
:10310C002A4002D04B68304698471CB123682146B0
:10311C001C46F2E72346FAE7F8B51F46044640681A
:10312C000E461546FFF7F5FE112F08D1012303FAC1
:10313C0006F663685B682A054CBF9E619E620020A0
:10314C00F8BD30B5036813600579046804EBC50459
:10315C00A34202D36FF0010030BD5C798C4201D0E8
:10316C000833F0E70020F7E74368C1F34B101B6806
:10317C0001F01F01C05801238B40034214BF0123EF
:10318C00002313700020704710B54368C1F34B1037
:10319C001A6801F01F01845801238B40234383508C
:1031AC00002010BD10B54368C1F34B14186801F032
:1031BC001F01235801228A4023EA020323500020D6
:1031CC0010BD38B504460D46FFF7DEFF29462046F4
:1031DC00FFF7E8FF002038BD37B502694368106877
:1031EC001D680C46D9688368DB6873B101AA9847DF
:1031FC0000280ADB2B6823F400432B60019B03EBB4
:10320C005403B3FBF4F39BB2EB6003B030BDB0F5E9
:10321C00805F07D0B0F1805F09D1002914BF012075
:10322C0002207047002914BF032004207047002996
:10323C0014BF02200320704743681B68D869DA6901
:10324C00D107DA69C0F3C00048BF40F00200920712
:10325C00DA6948BF40F004005107DA6948BF40F012
:10326C002000D20542BF4FF4807240F008001A6271
:10327C00C10744BF08221A62820744BF01221A62A6
:10328C00410744BF02221A62820644BF04221A621A
:10329C00704710B543681B681020DA691206FCD51C
:1032AC00EFF3118280F31288BFF36F8FDC69240671
:1032BC0004D482F31188BFF36F8FEEE7198582F384
:1032CC001188BFF36F8F10BD43681B68DA69100754
:1032DC0044BF08221A62DA69920643BF9B8C0B70BA
:1032EC0000204FF0FF30704710B502695268126829
:1032FC000A6042681268126802F4C062B2F5806F0C
:10330C0004460B4633D0A2F5C060424242411A71CA
:10331C0062681268526802F44052B2F5805F28D09D
:10332C00B2F5405F27D0002A0CBF012203225A714C
:10333C00626812681068116800F0102001F4C06116
:10334C00FFF765FF987162681268926802F4407228
:10335C00A2F540714A424A41DA716168096889688C
:10336C0011F4804F18BF0322DA71002010BD022225
:10337C00CDE70022DBE70222D9E7704740B1C368F2
:10338C00587810F001001EBF1878B0FA80F0400990
:10339C007047EFF31183102383F31288BFF36F8F01
:1033AC00FEE708B5FFF7F5FF10B5D0E9003433B9E7
:1033BC000020E268537843F00103537010BD20469F
:1033CC0098470028F4D00028B8BF4042E368FF2893
:1033DC00A8BFFF201870ECE700F0B5B800F0A5B856
:1033EC00704708B51024EFF3118384F31288BFF3F0
:1033FC006F8FFFF777FCF6E7D0E9003213605A6065
:10340C000023C0E90033704708B5FFF7F5FF437B95
:10341C0023F0020343730023836008BD10B5EFF360
:10342C001184102383F31288BFF36F8FFEF72CFDEA
:10343C0084F31188BFF36F8F10BD10B50146EFF305
:10344C001184102383F31288BFF36F8F437B13F027
:10345C00280F0AD183680BB1FFF7D6FF4B7B23F003
:10346C0004034B730846FEF70FFD84F31188BFF37A
:10347C006F8F10BD01211838FFF7DFBF38B5054637
:10348C000C46FEF76FFEB4F1FF3F08BFB5F1FF3FEE
:10349C000AD0C11709304FF00A024FF0000341F176
:1034AC000001FCF76DFE38BD4FF0FF30FBE710B5A7
:1034BC00FEF7F4FF0446FEF7F9FF74B1D4E90432C9
:1034CC001B1A62EBE072B3F1004F72F1000104DAE7
:1034DC00002AACBF1846002010BD6FF00040FBE77F
:1034EC0038B50246EFF31185102383F31288BFF32E
:1034FC006F8F036893B1FEF7D1FF04461046FEF7B9
:10350C00DFFF844204D1FFF7D2FF0021FEF7D4F98C
:10351C00002085F31188BFF36F8F38BD6FF0150055
:10352C00F7E708B5FFF7BCF808BD0A44914200F173
:10353C00FF3300D1704710B511F8014B03F8014F60
:10354C009142F9D110BD02440346934200D1704719
:10355C0003F8011BF9E710B5024601448A421346F1
:10356C0003D01C780132002CF8D1181A10BDF0B51C
:10357C00C3F137070446FFB203F01F031046082BB4
:10358C00E6B233D0102B3ED06508A40844EA81740F
:10359C0045EAC1752D194FEA910242EB51022909F6
:1035AC0041EA02716D1842EB1212290A41EA0261DA
:1035BC006D1842EB1222290C41EA02416D1842EBC4
:1035CC001242AD1842F10002EC0844EA4274D108F0
:1035DC0004EB8402A6EB4205EDB2092D0CD90134A3
:1035EC00A5F10A0541F10001EDB212E0E40844EA4C
:1035FC00417406F00705C908303554EA010200F899
:10360C00015BBCD1F0BD240944EA017406F00F053E
:10361C000909092D84BFED19EDB2EDE701480068E9
:08362C007047000000020020BD
:083634008CCBFF7F01000000B8
:10363C00151100089C3600084D050008000000001C
:10364C0000000000B0360008951300080037000891
:10365C006D0E0008C43600089513000814370008D6
:10366C0095130008EC36000895130008D8360008AE
:10367C00811500082837000895120008000000008A
:10368C002D18000800000000E50D000800000000E7
:10369C00EB3B000800000000083A00084200002044
:1036AC0000000000303C0008FC3A0008F839000823
:1036BC004C00002000000000CD3B00080000000082
:1036CC00000000004000002020020020F83B000811
:1036DC00683A0008D439000844000020A0020020F9
:1036EC00063C00087C3A0008D4390008460000204B
:1036FC00B4020020143C0008903A0008D4390008A9
:10370C0048000020C8020020223C0008A43A00080F
:10371C00D43900084A000020DC020020413C00089B
:10372C00003B0008243A00084E0000201400002042
:10373C0000000000DB2C000800000000DB2C00085F
:10374C0000000000DB2C000800000000DB2C00084F
:10375C0000000000DB2C000800000000DB2C00083F
:10376C00CB3B0008090E0008C93B0008090E0008F5
:10377C00C73B0008090E0008C53B0008090E0008ED
:10378C00C33B0008090E000800000000DB2C0008F9
:10379C0000000000DB2C000800000000DB2C0008FF
:1037AC0000000000DB2C000800000000DB2C0008EF
:1037BC0000000000DB2C000800000000DB2C0008DF
:1037CC0000000000DB2C000800000000DB2C0008CF
:1037DC0000000000DB2C000800000000DB2C0008BF
:1037EC0000000000DB2C0008C13B0008090E00089B
:1037FC0000000000DB2C000800000000DB2C00089F
:10380C0000000000DB2C000800000000DB2C00088E
:10381C0000000000DB2C000800000000DB2C00087E
:10382C0000000000DB2C000800000000DB2C00086E
:10383C0000000000DB2C000800000000DB2C00085E
:10384C0000000000DB2C000800000000DB2C00084E
:10385C0000000000DB2C000800000000DB2C00083E
:10386C0000000000DB2C000800000000DB2C00082E
:10387C00BF3B0008090E000800000000DB2C00080C
:10388C0000000000DB2C000800000000DB2C00080E
:10389C0000000000DB2C000800000000DB2C0008FE
:1038AC0000000000DB2C000800000000DB2C0008EE
:1038BC0000000000DB2C000800000000DB2C0008DE
:1038CC0000000000DB2C000800000000DB2C0008CE
:1038DC0000000000DB2C000800000000DB2C0008BE
:1038EC0000000000DB2C000800000000DB2C0008AE
:1038FC0000000000DB2C000800000000DB2C00089E
:10390C0000000000DB2C000800000000DB2C00088D
:10391C0000000000DB2C000800000000DB2C00087D
:10392C0000000000DB2C000800000000DB2C00086D
:10393C0000000000DB2C000800000000DB2C00085D
:10394C0000000000DB2C000800000000DB2C00084D
:10395C0000000000DB2C000800000000DB2C00083D
:10396C0000000000DB2C000800000000DB2C00082D
:10397C0000000000DB2C000800000000DB2C00081D
:10398C0000000000DB2C000800000000DB2C00080D
:10399C0000000000DB2C000800000000DB2C0008FD
:1039AC0000000000DB2C000800000000DB2C0008ED
:1039BC0000000000DB2C000800000000DB2C0008DD
:0839CC0000000000DB2C0008E4
:1039D400253000088D2E0008992E0008AB2E000813
:1039E400B52E0008BF2E0008E5120008CD2E0008F1
:0439F40000000000CF
:1039F8007531000895310008B1310008CF31000851
:103A0800732D0008B72D0008000000004D100008B5
:0C3A1800532E000800000000012E0008E2
:103A2400D53200089F32000845320008AD16000860
:043A3400F53200085F
:103A3800000000200000000000000B06020000004B
:103A48004C3A000800000008B03B000822000207BA
:103A580000000020B83B00081E000B1104000020E5
:103A6800FFFF0000001C0048070000004C00000099
:103A780080000000FFFF000000080048020000006E
:103A88004C00000004000000FFFF00000004004894
:103A9800010000004C00000002000000FFFF0000D1
:103AA80000000048000000004C0000000100000079
:103AB8001437000800370008EC3600080000000042
:103AC800000000000000000000000000D8360008D8
:103AD80000000000000000000000000000000000DE
:103AE80000000000000000000000000000000000CE
:103AF800000000000010024000440040B0360008FA
:103B080011070000243B000801000000000000002D
:103B180000000000000000002C3B000858000000D6
:103B280000000200343B0008010000003C3B000894
:103B3800020000004700000000020000E30100004E
:103B480000000000A0860100400D0300801A060056
:103B580000350C0040420F0080841E0000093D0023
:103B680000127A000024F40000366E010048E801D3
:103B7800006CDC023C3600083C3600088C36000835
:103B8800943600089C3600089C3600080010000097
:103B980000304F4E004F4646004C45442073746138
:103BA80074653A2025730A00464C4153485F30003B
:103BB8005352414D5F30000A060505040103010216
:103BC8000101010001696E746572727570742D636C
:103BD8006F6E74726F6C6C65724034303031303493
:103BE800303000726363403430303231303030006E
:103BF8006770696F40343830303163303000677037
:103C0800696F403438303030383030006770696F51
:103C1800403438303030343030006770696F4034A9
:103C2800383030303030300072657365742D636F12
:103C38006E74726F6C6C65720073657269616C404A
:103C480034303030343430300000000000000000E0
:103C58000001020304060708096D61696E002A2A3B
:103C68002A20426F6F74696E67205A65706879728E
:103C7800204F53206275696C642076342E312E30C3
:103C88002D7263312D3232382D6735613265363108
:103C9800323461346339202A2A2A0A00286E756C66
:0C3CA8006C29002A666C6F61742A000011
:103CB400992C0008000000002B2D000800000000D3
:103CC40000000000000000001C00002000C20100F1
:103CD4000001030000093D00280000202800002006
:103CE400FFFFFFFFFFFFFFFFFFFFFFFFFFFFFFFFE0
:103CF40000000000000000000000000000000000C0
:043D040015E015E0D1
:04000005080008B92E
:00000001FF
